{
  "_format": "hh-sol-artifact-1",
  "contractName": "ZepoMintFHEDeployed",
  "sourceName": "backend/contracts/ZepoMintFHEDeployed.sol",
  "abi": [
    {
      "inputs": [],
      "stateMutability": "nonpayable",
      "type": "constructor"
    },
    {
      "inputs": [
        {
          "internalType": "address",
          "name": "owner",
          "type": "address"
        }
      ],
      "name": "OwnableInvalidOwner",
      "type": "error"
    },
    {
      "inputs": [
        {
          "internalType": "address",
          "name": "account",
          "type": "address"
        }
      ],
      "name": "OwnableUnauthorizedAccount",
      "type": "error"
    },
    {
      "anonymous": false,
      "inputs": [
        {
          "indexed": false,
          "internalType": "uint256",
          "name": "endTime",
          "type": "uint256"
        },
        {
          "indexed": false,
          "internalType": "string",
          "name": "metadataCID",
          "type": "string"
        }
      ],
      "name": "AuctionCreated",
      "type": "event"
    },
    {
      "anonymous": false,
      "inputs": [
        {
          "indexed": false,
          "internalType": "address",
          "name": "winner",
          "type": "address"
        },
        {
          "indexed": false,
          "internalType": "euint128",
          "name": "encryptedPrice",
          "type": "bytes32"
        },
        {
          "indexed": false,
          "internalType": "uint256",
          "name": "winnerIndex",
          "type": "uint256"
        }
      ],
      "name": "AuctionFinalized",
      "type": "event"
    },
    {
      "anonymous": false,
      "inputs": [
        {
          "indexed": true,
          "internalType": "address",
          "name": "bidder",
          "type": "address"
        },
        {
          "indexed": false,
          "internalType": "uint256",
          "name": "bidIndex",
          "type": "uint256"
        }
      ],
      "name": "BidSubmitted",
      "type": "event"
    },
    {
      "anonymous": false,
      "inputs": [
        {
          "indexed": false,
          "internalType": "address",
          "name": "winner",
          "type": "address"
        },
        {
          "indexed": false,
          "internalType": "uint256",
          "name": "tokenId",
          "type": "uint256"
        }
      ],
      "name": "NFTMinted",
      "type": "event"
    },
    {
      "anonymous": false,
      "inputs": [
        {
          "indexed": true,
          "internalType": "address",
          "name": "previousOwner",
          "type": "address"
        },
        {
          "indexed": true,
          "internalType": "address",
          "name": "newOwner",
          "type": "address"
        }
      ],
      "name": "OwnershipTransferred",
      "type": "event"
    },
    {
      "anonymous": false,
      "inputs": [
        {
          "indexed": false,
          "internalType": "string",
          "name": "newPublicKeyURI",
          "type": "string"
        },
        {
          "indexed": false,
          "internalType": "uint256",
          "name": "timestamp",
          "type": "uint256"
        }
      ],
      "name": "PublicKeyUpdated",
      "type": "event"
    },
    {
      "inputs": [],
      "name": "auctionInitialized",
      "outputs": [
        {
          "internalType": "bool",
          "name": "",
          "type": "bool"
        }
      ],
      "stateMutability": "view",
      "type": "function"
    },
    {
      "inputs": [],
      "name": "computeWinnerOnChain",
      "outputs": [],
      "stateMutability": "nonpayable",
      "type": "function"
    },
    {
      "inputs": [
        {
          "internalType": "uint256",
          "name": "biddingDurationSeconds",
          "type": "uint256"
        },
        {
          "internalType": "string",
          "name": "metadataCID",
          "type": "string"
        }
      ],
      "name": "createAuction",
      "outputs": [],
      "stateMutability": "nonpayable",
      "type": "function"
    },
    {
      "inputs": [],
      "name": "currentAuction",
      "outputs": [
        {
          "internalType": "string",
          "name": "metadataCID",
          "type": "string"
        },
        {
          "internalType": "uint256",
          "name": "endTime",
          "type": "uint256"
        },
        {
          "internalType": "bool",
          "name": "finalized",
          "type": "bool"
        },
        {
          "internalType": "euint128",
          "name": "encryptedWinningPrice",
          "type": "bytes32"
        },
        {
          "internalType": "uint256",
          "name": "winnerIndex",
          "type": "uint256"
        },
        {
          "internalType": "address",
          "name": "winner",
          "type": "address"
        }
      ],
      "stateMutability": "view",
      "type": "function"
    },
    {
      "inputs": [
        {
          "internalType": "uint256",
          "name": "",
          "type": "uint256"
        }
      ],
      "name": "encryptedBids",
      "outputs": [
        {
          "internalType": "address",
          "name": "bidder",
          "type": "address"
        },
        {
          "internalType": "euint128",
          "name": "ciphertext",
          "type": "bytes32"
        },
        {
          "internalType": "uint256",
          "name": "timestamp",
          "type": "uint256"
        }
      ],
      "stateMutability": "view",
      "type": "function"
    },
    {
      "inputs": [],
      "name": "getAuctionDetails",
      "outputs": [
        {
          "internalType": "string",
          "name": "metadataCID",
          "type": "string"
        },
        {
          "internalType": "uint256",
          "name": "endTime",
          "type": "uint256"
        },
        {
          "internalType": "bool",
          "name": "finalized",
          "type": "bool"
        },
        {
          "internalType": "uint256",
          "name": "winnerIndex",
          "type": "uint256"
        },
        {
          "internalType": "address",
          "name": "winner",
          "type": "address"
        }
      ],
      "stateMutability": "view",
      "type": "function"
    },
    {
      "inputs": [],
      "name": "getBidCount",
      "outputs": [
        {
          "internalType": "uint256",
          "name": "",
          "type": "uint256"
        }
      ],
      "stateMutability": "view",
      "type": "function"
    },
    {
      "inputs": [],
      "name": "hasAuctionEnded",
      "outputs": [
        {
          "internalType": "bool",
          "name": "",
          "type": "bool"
        }
      ],
      "stateMutability": "view",
      "type": "function"
    },
    {
      "inputs": [],
      "name": "initialize",
      "outputs": [],
      "stateMutability": "nonpayable",
      "type": "function"
    },
    {
      "inputs": [],
      "name": "isAuctionCreated",
      "outputs": [
        {
          "internalType": "bool",
          "name": "",
          "type": "bool"
        }
      ],
      "stateMutability": "view",
      "type": "function"
    },
    {
      "inputs": [],
      "name": "keyGenerationTimestamp",
      "outputs": [
        {
          "internalType": "uint256",
          "name": "",
          "type": "uint256"
        }
      ],
      "stateMutability": "view",
      "type": "function"
    },
    {
      "inputs": [
        {
          "internalType": "uint256",
          "name": "tokenId",
          "type": "uint256"
        }
      ],
      "name": "mintNFT",
      "outputs": [],
      "stateMutability": "nonpayable",
      "type": "function"
    },
    {
      "inputs": [],
      "name": "owner",
      "outputs": [
        {
          "internalType": "address",
          "name": "",
          "type": "address"
        }
      ],
      "stateMutability": "view",
      "type": "function"
    },
    {
      "inputs": [],
      "name": "protocolId",
      "outputs": [
        {
          "internalType": "uint256",
          "name": "",
          "type": "uint256"
        }
      ],
      "stateMutability": "pure",
      "type": "function"
    },
    {
      "inputs": [],
      "name": "publicKeyURI",
      "outputs": [
        {
          "internalType": "string",
          "name": "",
          "type": "string"
        }
      ],
      "stateMutability": "view",
      "type": "function"
    },
    {
      "inputs": [],
      "name": "renounceOwnership",
      "outputs": [],
      "stateMutability": "nonpayable",
      "type": "function"
    },
    {
      "inputs": [
        {
          "internalType": "uint256",
          "name": "",
          "type": "uint256"
        }
      ],
      "name": "requestWinningBidDecryption",
      "outputs": [],
      "stateMutability": "nonpayable",
      "type": "function"
    },
    {
      "inputs": [
        {
          "internalType": "string",
          "name": "_publicKeyURI",
          "type": "string"
        }
      ],
      "name": "setPublicKeyURI",
      "outputs": [],
      "stateMutability": "nonpayable",
      "type": "function"
    },
    {
      "inputs": [
        {
          "internalType": "externalEuint128",
          "name": "encryptedBid",
          "type": "bytes32"
        },
        {
          "internalType": "bytes",
          "name": "inputProof",
          "type": "bytes"
        }
      ],
      "name": "submitBid",
      "outputs": [],
      "stateMutability": "nonpayable",
      "type": "function"
    },
    {
      "inputs": [
        {
          "internalType": "address",
          "name": "newOwner",
          "type": "address"
        }
      ],
      "name": "transferOwnership",
      "outputs": [],
      "stateMutability": "nonpayable",
      "type": "function"
    },
    {
      "inputs": [],
      "name": "winningPriceInitialized",
      "outputs": [
        {
          "internalType": "bool",
          "name": "",
          "type": "bool"
        }
      ],
      "stateMutability": "view",
      "type": "function"
    }
  ],
  "bytecode": "0x608060405234801561000f575f80fd5b503361018b6100af604080516080810182525f80825260208201819052918101829052606081019190915250604080516080810182527350157cffd6bbfa2dece204a89ec419c23ef5755d815273cd3ab3bd6bcc0c0bf3e27912a92043e817b1cf69602082015273a02cda4ca3a71d7c46997716f4283aa851c2881291810191909152731364cbbf2cdf5032c47d8226a6f6fbd2afcdacac606082015290565b80517f9e7b61f58c47dc699ac88507c4f5bb9f121c03808c5676a8078fe583e464970080546001600160a01b03199081166001600160a01b039384161790915560208301517f9e7b61f58c47dc699ac88507c4f5bb9f121c03808c5676a8078fe583e46497018054831691841691909117905560408301517f9e7b61f58c47dc699ac88507c4f5bb9f121c03808c5676a8078fe583e46497028054831691841691909117905560608301517f9e7b61f58c47dc699ac88507c4f5bb9f121c03808c5676a8078fe583e46497038054909216921691909117905550565b6001600160a01b0381166101b857604051631e4fbdf760e01b81525f600482015260240160405180910390fd5b6101c1816101d2565b50600a805461ffff19169055610221565b5f80546001600160a01b038381166001600160a01b0319831681178455604051919092169283917f8be0079c531659141344cd1fd0a4f28419497f9722a3daafe3b4186f6b6457e09190a35050565b611a5c8061022e5f395ff3fe608060405234801561000f575f80fd5b5060043610610132575f3560e01c806392642744116100b4578063d1b4c21811610079578063d1b4c2181461025f578063da1f12ab14610274578063ebc4bd6d1461027c578063f0d93b9a14610285578063f2fde38b14610298578063fdf0afee146102ab575f80fd5b806392642744146101ee578063a0484dda14610201578063a674794314610209578063a75193a114610241578063adaa19921461024c575f80fd5b8063715018a6116100fa578063715018a6146101ac57806374ab8327146101b45780638129fc1c146101775780638da5cb5b146101c75780638f1b8f32146101e1575f80fd5b80631e6dcc3e1461013657806328f6a48a1461015d5780633101bde51461016f5780633a6dcea214610179578063496a698d14610192575b5f80fd5b600a5461014890610100900460ff1681565b60405190151581526020015b60405180910390f35b6003545b604051908152602001610154565b6101776102be565b005b610181610567565b604051610154959493929190611516565b61019a61062f565b60405161015496959493929190611555565b6101776106eb565b6101776101c2366004611599565b6106fe565b5f546040516001600160a01b039091168152602001610154565b600a546101489060ff1681565b6101776101fc366004611599565b6107de565b6101486108bd565b61021c610217366004611599565b6108d8565b604080516001600160a01b039094168452602084019290925290820152606001610154565b600a5460ff16610148565b61017761025a36600461164d565b610913565b610267610ad7565b6040516101549190611691565b612711610161565b61016160025481565b6101776102933660046116a3565b610b63565b6101776102a63660046116d5565b610bff565b6101776102b93660046116fb565b610c39565b600a5460ff1661030f5760405162461bcd60e51b8152602060048201526017602482015276105d58dd1a5bdb881b9bdd081a5b9a5d1a585b1a5e9959604a1b60448201526064015b60405180910390fd5b6005544210156103555760405162461bcd60e51b8152602060048201526011602482015270105d58dd1a5bdb881b9bdd08195b991959607a1b6044820152606401610306565b60065460ff16156103a85760405162461bcd60e51b815260206004820152601960248201527f41756374696f6e20616c72656164792066696e616c697a6564000000000000006044820152606401610306565b6003546103eb5760405162461bcd60e51b8152602060048201526011602482015270139bc8189a591cc81cdd589b5a5d1d1959607a1b6044820152606401610306565b600a54610100900460ff166104425760405162461bcd60e51b815260206004820152601d60248201527f57696e6e696e67207072696365206e6f7420696e697469616c697a65640000006044820152606401610306565b6007546104615760405162461bcd60e51b815260040161030690611770565b600b546104b05760405162461bcd60e51b815260206004820181905260248201527f456e637279707465642077696e6e6572206e6f7420696e697469616c697a65646044820152606401610306565b5f6008819055600380549091906104c9576104c96117b7565b5f9182526020918290206003919091020154600980546001600160a01b0319166001600160a01b0390921691821790556006805460ff1916600117905560075460085460408051938452938301919091528183015290517f1122ce06fdade2a6957cb8c770940752a5693c16576d83428ba6d0e37a4744509181900360600190a160075461055690610f70565b506007546105649033610f7f565b50565b600554600654600854600954600480546060955f958695869586959460ff909316926001600160a01b039091169085906105a0906117cb565b80601f01602080910402602001604051908101604052809291908181526020018280546105cc906117cb565b80156106175780601f106105ee57610100808354040283529160200191610617565b820191905f5260205f20905b8154815290600101906020018083116105fa57829003601f168201915b50505050509450945094509450945094509091929394565b60048054819061063e906117cb565b80601f016020809104026020016040519081016040528092919081815260200182805461066a906117cb565b80156106b55780601f1061068c576101008083540402835291602001916106b5565b820191905f5260205f20905b81548152906001019060200180831161069857829003601f168201915b50505060018401546002850154600386015460048701546005909701549596929560ff909216945092506001600160a01b031686565b6106f3610f93565b6106fc5f610fbf565b565b610706610f93565b60065460ff166107505760405162461bcd60e51b8152602060048201526015602482015274105d58dd1a5bdb881b9bdd08199a5b985b1a5e9959605a1b6044820152606401610306565b60075461076f5760405162461bcd60e51b815260040161030690611770565b600954600754600854604080516001600160a01b039094168452602084019290925282820152517f1122ce06fdade2a6957cb8c770940752a5693c16576d83428ba6d0e37a4744509181900360600190a16007546107cc90610f70565b506007546107da9033610f7f565b5050565b60065460ff166108285760405162461bcd60e51b8152602060048201526015602482015274105d58dd1a5bdb881b9bdd08199a5b985b1a5e9959605a1b6044820152606401610306565b6009546001600160a01b031633146108735760405162461bcd60e51b815260206004820152600e60248201526d2737ba103a3432903bb4b73732b960911b6044820152606401610306565b600954604080516001600160a01b039092168252602082018390527f4cc0a9c4a99ddc700de1af2c9f916a7cbfdb71f14801ccff94061ad1ef8a804091015b60405180910390a150565b600a545f9060ff166108ce57505f90565b5060055442101590565b600381815481106108e7575f80fd5b5f9182526020909120600390910201805460018201546002909201546001600160a01b03909116925083565b61091b610f93565b5f82116109745760405162461bcd60e51b815260206004820152602160248201527f42696464696e67206475726174696f6e206d75737420626520706f73697469766044820152606560f81b6064820152608401610306565b5f8151116109c45760405162461bcd60e51b815260206004820152601860248201527f4d657461646174612043494420697320726571756972656400000000000000006044820152606401610306565b600a805460ff191660011790556040805160c08101909152818152602081016109ed8442611803565b81525f60208201819052604082018190526060820181905260809091015280516004908190610a1c908261186e565b5060208201516001820155604082015160028201805460ff191691151591909117905560608201516003808301919091556080830151600483015560a090920151600590910180546001600160a01b0319166001600160a01b03909216919091179055610a89905f61148e565b600a805461ff00191690555f600b556005546040517f84dbbe572fcd8281f88fbf55359ad5039443609c2304288d3c8816dd3bb9fc2191610acb91849061192a565b60405180910390a15050565b60018054610ae4906117cb565b80601f0160208091040260200160405190810160405280929190818152602001828054610b10906117cb565b8015610b5b5780601f10610b3257610100808354040283529160200191610b5b565b820191905f5260205f20905b815481529060010190602001808311610b3e57829003601f168201915b505050505081565b610b6b610f93565b5f815111610bbb5760405162461bcd60e51b815260206004820152601e60248201527f5075626c6963206b6579205552492063616e6e6f7420626520656d70747900006044820152606401610306565b6001610bc7828261186e565b504260028190556040517fde6d55f540d15f192e6a2516799842e8cbf56cdad80f7276552b949bba4bf6fa916108b291849190611942565b610c07610f93565b6001600160a01b038116610c3057604051631e4fbdf760e01b81525f6004820152602401610306565b61056481610fbf565b600a5460ff16610c855760405162461bcd60e51b8152602060048201526017602482015276105d58dd1a5bdb881b9bdd081a5b9a5d1a585b1a5e9959604a1b6044820152606401610306565b6005544210610cca5760405162461bcd60e51b8152602060048201526011602482015270105d58dd1a5bdb881a185cc8195b991959607a1b6044820152606401610306565b5f610d0a8484848080601f0160208091040260200160405190810160405280939291908181526020018383808284375f9201919091525061100e92505050565b905080610d685760405162461bcd60e51b815260206004820152602660248201527f456e6372797074656420626964206e6f742070726f7065726c7920696e697469604482015265185b1a5e995960d21b6064820152608401610306565b6003805460408051606081018252338082526020808301878152428486019081526001870188555f88905293517fc2575a0e9e593c00f959f8c92f12db2869c3395a3b0502d05e2516446f71f85b97870297880180546001600160a01b0319166001600160a01b03909216919091179055517fc2575a0e9e593c00f959f8c92f12db2869c3395a3b0502d05e2516446f71f85c87015591517fc2575a0e9e593c00f959f8c92f12db2869c3395a3b0502d05e2516446f71f85d9095019490945590518281529192917f0862512267aa2317caa9475b7e771425e6b897509aade0be0d8fc6f5ce5fdd18910160405180910390a2805f03610ea05760078290555f600855600980546001600160a01b03191633908117909155610e8990611022565b600b55600a805461ff001916610100179055610f39565b600754610efd5760405162461bcd60e51b815260206004820152602560248201527f43757272656e742077696e6e696e67207072696365206e6f7420696e697469616044820152641b1a5e995960da1b6064820152608401610306565b5f610f0d83600460030154611037565b9050610f2481610f1c33611022565b600b54611065565b600b55600754610f349084611079565b600755505b610f4282610f70565b50610f4d8233610f7f565b50600754610f5a90610f70565b50600754610f689033610f7f565b505050505050565b5f610f7b82306110a7565b5090565b5f610f8a83836110a7565b50815b92915050565b5f546001600160a01b031633146106fc5760405163118cdaa760e01b8152336004820152602401610306565b5f80546001600160a01b038381166001600160a01b0319831681178455604051919092169283917f8be0079c531659141344cd1fd0a4f28419497f9722a3daafe3b4186f6b6457e09190a35050565b5f61101b8383600661111d565b9392505050565b5f610f8d826001600160a01b03166007611217565b5f82611049576110465f6112a6565b92505b8161105a576110575f6112a6565b91505b61101b83835f6112c4565b5f611071848484611381565b949350505050565b5f8261108b576110885f6112a6565b92505b8161109c576110995f6112a6565b91505b61101b83835f611417565b5f5f80516020611a078339815191528054604051635ca4b5b160e11b8152600481018690526001600160a01b03858116602483015292935091169063b9496b62906044015f604051808303815f87803b158015611102575f80fd5b505af1158015611114573d5f803e3d5ffd5b50505050505050565b5f805160206119e78339815191525460405163196d0b9b60e01b81525f915f80516020611a07833981519152916001600160a01b039091169063196d0b9b90611170908890339089908990600401611983565b6020604051808303815f875af115801561118c573d5f803e3d5ffd5b505050506040513d601f19601f820116820180604052508101906111b091906119bb565b8154604051630f8e573b60e21b8152600481018390523360248201529193506001600160a01b031690633e395cec906044015f604051808303815f87803b1580156111f9575f80fd5b505af115801561120b573d5f803e3d5ffd5b50505050509392505050565b5f805160206119e783398151915254604051639cd07acb60e01b81525f915f80516020611a07833981519152916001600160a01b0390911690639cd07acb9061126690879087906004016119d2565b6020604051808303815f875af1158015611282573d5f803e3d5ffd5b505050506040513d601f19601f8201168201806040525081019061107191906119bb565b5f610f8d826fffffffffffffffffffffffffffffffff166006611217565b5f8082156112d75750600160f81b6112da565b505f5b5f805160206119e7833981519152546040516385362ee760e01b815260048101879052602481018690526001600160f81b0319831660448201525f80516020611a07833981519152916001600160a01b0316906385362ee7906064015b6020604051808303815f875af1158015611353573d5f803e3d5ffd5b505050506040513d601f19601f8201168201806040525081019061137791906119bb565b9695505050505050565b5f805f80516020611a078339815191526001810154604051637702dcff60e01b81526004810188905260248101879052604481018690529192506001600160a01b031690637702dcff906064016020604051808303815f875af11580156113ea573d5f803e3d5ffd5b505050506040513d601f19601f8201168201806040525081019061140e91906119bb565b95945050505050565b5f80821561142a5750600160f81b61142d565b505f5b5f805160206119e783398151915254604051630d8c635960e21b815260048101879052602481018690526001600160f81b0319831660448201525f80516020611a07833981519152916001600160a01b0316906336318d6490606401611337565b5080545f8255600302905f5260205f209081019061056491905b80821115610f7b5780546001600160a01b03191681555f6001820181905560028201556003016114a8565b5f81518084525f5b818110156114f7576020818501810151868301820152016114db565b505f602082860101526020601f19601f83011685010191505092915050565b60a081525f61152860a08301886114d3565b602083019690965250921515604084015260608301919091526001600160a01b0316608090910152919050565b60c081525f61156760c08301896114d3565b6020830197909752509315156040850152606084019290925260808301526001600160a01b031660a090910152919050565b5f602082840312156115a9575f80fd5b5035919050565b634e487b7160e01b5f52604160045260245ffd5b5f82601f8301126115d3575f80fd5b813567ffffffffffffffff808211156115ee576115ee6115b0565b604051601f8301601f19908116603f01168101908282118183101715611616576116166115b0565b8160405283815286602085880101111561162e575f80fd5b836020870160208301375f602085830101528094505050505092915050565b5f806040838503121561165e575f80fd5b82359150602083013567ffffffffffffffff81111561167b575f80fd5b611687858286016115c4565b9150509250929050565b602081525f61101b60208301846114d3565b5f602082840312156116b3575f80fd5b813567ffffffffffffffff8111156116c9575f80fd5b611071848285016115c4565b5f602082840312156116e5575f80fd5b81356001600160a01b038116811461101b575f80fd5b5f805f6040848603121561170d575f80fd5b83359250602084013567ffffffffffffffff8082111561172b575f80fd5b818601915086601f83011261173e575f80fd5b81358181111561174c575f80fd5b87602082850101111561175d575f80fd5b6020830194508093505050509250925092565b60208082526027908201527f456e637279707465642077696e6e696e67207072696365206e6f7420696e69746040820152661a585b1a5e995960ca1b606082015260800190565b634e487b7160e01b5f52603260045260245ffd5b600181811c908216806117df57607f821691505b6020821081036117fd57634e487b7160e01b5f52602260045260245ffd5b50919050565b80820180821115610f8d57634e487b7160e01b5f52601160045260245ffd5b601f82111561186957805f5260205f20601f840160051c810160208510156118475750805b601f840160051c820191505b81811015611866575f8155600101611853565b50505b505050565b815167ffffffffffffffff811115611888576118886115b0565b61189c8161189684546117cb565b84611822565b602080601f8311600181146118cf575f84156118b85750858301515b5f19600386901b1c1916600185901b178555610f68565b5f85815260208120601f198616915b828110156118fd578886015182559484019460019091019084016118de565b508582101561191a57878501515f19600388901b60f8161c191681555b5050505050600190811b01905550565b828152604060208201525f61107160408301846114d3565b604081525f61195460408301856114d3565b90508260208301529392505050565b6054811061197f57634e487b7160e01b5f52602160045260245ffd5b9052565b8481526001600160a01b03841660208201526080604082018190525f906119ac908301856114d3565b905061140e6060830184611963565b5f602082840312156119cb575f80fd5b5051919050565b8281526040810161101b602083018461196356fe9e7b61f58c47dc699ac88507c4f5bb9f121c03808c5676a8078fe583e46497019e7b61f58c47dc699ac88507c4f5bb9f121c03808c5676a8078fe583e4649700a26469706673582212201627f2e60dfe246de25375aac094d26975eb60e6f838d0812e80a346aa79e41d64736f6c63430008180033",
  "linkReferences": {},
  "deployedLinkReferences": {}
}