{
  "_format": "hh-sol-artifact-1",
  "contractName": "ZepoMintFHEOptimized",
  "sourceName": "backend/contracts/ZepoMintFHEOptimized.sol",
  "abi": [
    {
      "inputs": [],
      "stateMutability": "nonpayable",
      "type": "constructor"
    },
    {
      "inputs": [
        {
          "internalType": "address",
          "name": "owner",
          "type": "address"
        }
      ],
      "name": "OwnableInvalidOwner",
      "type": "error"
    },
    {
      "inputs": [
        {
          "internalType": "address",
          "name": "account",
          "type": "address"
        }
      ],
      "name": "OwnableUnauthorizedAccount",
      "type": "error"
    },
    {
      "anonymous": false,
      "inputs": [
        {
          "indexed": false,
          "internalType": "uint256",
          "name": "endTime",
          "type": "uint256"
        },
        {
          "indexed": false,
          "internalType": "string",
          "name": "metadataCID",
          "type": "string"
        }
      ],
      "name": "AuctionCreated",
      "type": "event"
    },
    {
      "anonymous": false,
      "inputs": [
        {
          "indexed": false,
          "internalType": "address",
          "name": "winner",
          "type": "address"
        },
        {
          "indexed": false,
          "internalType": "euint128",
          "name": "encryptedPrice",
          "type": "bytes32"
        },
        {
          "indexed": false,
          "internalType": "uint256",
          "name": "winnerIndex",
          "type": "uint256"
        }
      ],
      "name": "AuctionFinalized",
      "type": "event"
    },
    {
      "anonymous": false,
      "inputs": [
        {
          "indexed": true,
          "internalType": "address",
          "name": "bidder",
          "type": "address"
        },
        {
          "indexed": false,
          "internalType": "uint256",
          "name": "bidIndex",
          "type": "uint256"
        }
      ],
      "name": "BidSubmitted",
      "type": "event"
    },
    {
      "anonymous": false,
      "inputs": [
        {
          "indexed": false,
          "internalType": "address",
          "name": "winner",
          "type": "address"
        },
        {
          "indexed": false,
          "internalType": "uint256",
          "name": "tokenId",
          "type": "uint256"
        }
      ],
      "name": "NFTMinted",
      "type": "event"
    },
    {
      "anonymous": false,
      "inputs": [
        {
          "indexed": true,
          "internalType": "address",
          "name": "previousOwner",
          "type": "address"
        },
        {
          "indexed": true,
          "internalType": "address",
          "name": "newOwner",
          "type": "address"
        }
      ],
      "name": "OwnershipTransferred",
      "type": "event"
    },
    {
      "anonymous": false,
      "inputs": [
        {
          "indexed": false,
          "internalType": "string",
          "name": "newPublicKeyURI",
          "type": "string"
        },
        {
          "indexed": false,
          "internalType": "uint256",
          "name": "timestamp",
          "type": "uint256"
        }
      ],
      "name": "PublicKeyUpdated",
      "type": "event"
    },
    {
      "inputs": [],
      "name": "auctionInitialized",
      "outputs": [
        {
          "internalType": "bool",
          "name": "",
          "type": "bool"
        }
      ],
      "stateMutability": "view",
      "type": "function"
    },
    {
      "inputs": [],
      "name": "computeWinnerOnChain",
      "outputs": [],
      "stateMutability": "nonpayable",
      "type": "function"
    },
    {
      "inputs": [
        {
          "internalType": "uint256",
          "name": "biddingDurationSeconds",
          "type": "uint256"
        },
        {
          "internalType": "string",
          "name": "metadataCID",
          "type": "string"
        }
      ],
      "name": "createAuction",
      "outputs": [],
      "stateMutability": "nonpayable",
      "type": "function"
    },
    {
      "inputs": [],
      "name": "currentAuction",
      "outputs": [
        {
          "internalType": "string",
          "name": "metadataCID",
          "type": "string"
        },
        {
          "internalType": "uint256",
          "name": "endTime",
          "type": "uint256"
        },
        {
          "internalType": "bool",
          "name": "finalized",
          "type": "bool"
        },
        {
          "internalType": "euint128",
          "name": "encryptedWinningPrice",
          "type": "bytes32"
        },
        {
          "internalType": "uint256",
          "name": "winnerIndex",
          "type": "uint256"
        },
        {
          "internalType": "address",
          "name": "winner",
          "type": "address"
        }
      ],
      "stateMutability": "view",
      "type": "function"
    },
    {
      "inputs": [
        {
          "internalType": "uint256",
          "name": "",
          "type": "uint256"
        }
      ],
      "name": "encryptedBids",
      "outputs": [
        {
          "internalType": "address",
          "name": "bidder",
          "type": "address"
        },
        {
          "internalType": "euint128",
          "name": "ciphertext",
          "type": "bytes32"
        },
        {
          "internalType": "uint256",
          "name": "timestamp",
          "type": "uint256"
        }
      ],
      "stateMutability": "view",
      "type": "function"
    },
    {
      "inputs": [],
      "name": "getAuctionDetails",
      "outputs": [
        {
          "internalType": "string",
          "name": "metadataCID",
          "type": "string"
        },
        {
          "internalType": "uint256",
          "name": "endTime",
          "type": "uint256"
        },
        {
          "internalType": "bool",
          "name": "finalized",
          "type": "bool"
        },
        {
          "internalType": "uint256",
          "name": "winnerIndex",
          "type": "uint256"
        },
        {
          "internalType": "address",
          "name": "winner",
          "type": "address"
        }
      ],
      "stateMutability": "view",
      "type": "function"
    },
    {
      "inputs": [],
      "name": "getBidCount",
      "outputs": [
        {
          "internalType": "uint256",
          "name": "",
          "type": "uint256"
        }
      ],
      "stateMutability": "view",
      "type": "function"
    },
    {
      "inputs": [],
      "name": "hasAuctionEnded",
      "outputs": [
        {
          "internalType": "bool",
          "name": "",
          "type": "bool"
        }
      ],
      "stateMutability": "view",
      "type": "function"
    },
    {
      "inputs": [],
      "name": "initialize",
      "outputs": [],
      "stateMutability": "nonpayable",
      "type": "function"
    },
    {
      "inputs": [],
      "name": "keyGenerationTimestamp",
      "outputs": [
        {
          "internalType": "uint256",
          "name": "",
          "type": "uint256"
        }
      ],
      "stateMutability": "view",
      "type": "function"
    },
    {
      "inputs": [
        {
          "internalType": "uint256",
          "name": "tokenId",
          "type": "uint256"
        }
      ],
      "name": "mintNFT",
      "outputs": [],
      "stateMutability": "nonpayable",
      "type": "function"
    },
    {
      "inputs": [],
      "name": "owner",
      "outputs": [
        {
          "internalType": "address",
          "name": "",
          "type": "address"
        }
      ],
      "stateMutability": "view",
      "type": "function"
    },
    {
      "inputs": [],
      "name": "protocolId",
      "outputs": [
        {
          "internalType": "uint256",
          "name": "",
          "type": "uint256"
        }
      ],
      "stateMutability": "pure",
      "type": "function"
    },
    {
      "inputs": [],
      "name": "publicKeyURI",
      "outputs": [
        {
          "internalType": "string",
          "name": "",
          "type": "string"
        }
      ],
      "stateMutability": "view",
      "type": "function"
    },
    {
      "inputs": [],
      "name": "renounceOwnership",
      "outputs": [],
      "stateMutability": "nonpayable",
      "type": "function"
    },
    {
      "inputs": [
        {
          "internalType": "uint256",
          "name": "",
          "type": "uint256"
        }
      ],
      "name": "requestWinningBidDecryption",
      "outputs": [],
      "stateMutability": "nonpayable",
      "type": "function"
    },
    {
      "inputs": [
        {
          "internalType": "string",
          "name": "_publicKeyURI",
          "type": "string"
        }
      ],
      "name": "setPublicKeyURI",
      "outputs": [],
      "stateMutability": "nonpayable",
      "type": "function"
    },
    {
      "inputs": [
        {
          "internalType": "externalEuint128",
          "name": "encryptedBid",
          "type": "bytes32"
        },
        {
          "internalType": "bytes",
          "name": "inputProof",
          "type": "bytes"
        }
      ],
      "name": "submitBid",
      "outputs": [],
      "stateMutability": "nonpayable",
      "type": "function"
    },
    {
      "inputs": [
        {
          "internalType": "address",
          "name": "newOwner",
          "type": "address"
        }
      ],
      "name": "transferOwnership",
      "outputs": [],
      "stateMutability": "nonpayable",
      "type": "function"
    },
    {
      "inputs": [],
      "name": "winningPriceInitialized",
      "outputs": [
        {
          "internalType": "bool",
          "name": "",
          "type": "bool"
        }
      ],
      "stateMutability": "view",
      "type": "function"
    }
  ],
  "bytecode": "0x608060405234801561000f575f80fd5b503361018b6100af604080516080810182525f808252602082018190529181018290526060810191909152506040805160808101825273687820221192c5b662b25367f70076a37bc79b6c815273848b0066793bcc60346da1f49049357399b8d595602082015273a02cda4ca3a71d7c46997716f4283aa851c2881291810191909152731364cbbf2cdf5032c47d8226a6f6fbd2afcdacac606082015290565b80517f9e7b61f58c47dc699ac88507c4f5bb9f121c03808c5676a8078fe583e464970080546001600160a01b03199081166001600160a01b039384161790915560208301517f9e7b61f58c47dc699ac88507c4f5bb9f121c03808c5676a8078fe583e46497018054831691841691909117905560408301517f9e7b61f58c47dc699ac88507c4f5bb9f121c03808c5676a8078fe583e46497028054831691841691909117905560608301517f9e7b61f58c47dc699ac88507c4f5bb9f121c03808c5676a8078fe583e46497038054909216921691909117905550565b6001600160a01b0381166101b857604051631e4fbdf760e01b81525f600482015260240160405180910390fd5b6101c1816101d2565b50600a805461ffff19169055610221565b5f80546001600160a01b038381166001600160a01b0319831681178455604051919092169283917f8be0079c531659141344cd1fd0a4f28419497f9722a3daafe3b4186f6b6457e09190a35050565b611ac58061022e5f395ff3fe608060405234801561000f575f80fd5b5060043610610127575f3560e01c806392642744116100a9578063da1f12ab1161006e578063da1f12ab14610269578063ebc4bd6d14610271578063f0d93b9a1461027a578063f2fde38b1461028d578063fdf0afee146102a0575f80fd5b806392642744146101eb578063a0484dda146101fe578063a674794314610209578063adaa199214610241578063d1b4c21814610254575f80fd5b8063715018a6116100ef578063715018a6146101a157806374ab8327146101a95780638129fc1c146101bc5780638da5cb5b146101c45780638f1b8f32146101de575f80fd5b80631e6dcc3e1461012b57806328f6a48a146101525780633101bde5146101645780633a6dcea21461016e578063496a698d14610187575b5f80fd5b600a5461013d90610100900460ff1681565b60405190151581526020015b60405180910390f35b6003545b604051908152602001610149565b61016c6102b3565b005b61017661055c565b60405161014995949392919061157f565b61018f610624565b604051610149969594939291906115be565b61016c6106e0565b61016c6101b7366004611602565b6106f3565b61016c6107d3565b5f546040516001600160a01b039091168152602001610149565b600a5461013d9060ff1681565b61016c6101f9366004611602565b6107ec565b60055442101561013d565b61021c610217366004611602565b6108cb565b604080516001600160a01b039094168452602084019290925290820152606001610149565b61016c61024f3660046116b6565b610906565b61025c610b40565b60405161014991906116fa565b612711610156565b61015660025481565b61016c61028836600461170c565b610bcc565b61016c61029b36600461173e565b610c68565b61016c6102ae366004611764565b610ca2565b600a5460ff166103045760405162461bcd60e51b8152602060048201526017602482015276105d58dd1a5bdb881b9bdd081a5b9a5d1a585b1a5e9959604a1b60448201526064015b60405180910390fd5b60055442101561034a5760405162461bcd60e51b8152602060048201526011602482015270105d58dd1a5bdb881b9bdd08195b991959607a1b60448201526064016102fb565b60065460ff161561039d5760405162461bcd60e51b815260206004820152601960248201527f41756374696f6e20616c72656164792066696e616c697a65640000000000000060448201526064016102fb565b6003546103e05760405162461bcd60e51b8152602060048201526011602482015270139bc8189a591cc81cdd589b5a5d1d1959607a1b60448201526064016102fb565b600a54610100900460ff166104375760405162461bcd60e51b815260206004820152601d60248201527f57696e6e696e67207072696365206e6f7420696e697469616c697a656400000060448201526064016102fb565b6007546104565760405162461bcd60e51b81526004016102fb906117d9565b600b546104a55760405162461bcd60e51b815260206004820181905260248201527f456e637279707465642077696e6e6572206e6f7420696e697469616c697a656460448201526064016102fb565b5f6008819055600380549091906104be576104be611820565b5f9182526020918290206003919091020154600980546001600160a01b0319166001600160a01b0390921691821790556006805460ff1916600117905560075460085460408051938452938301919091528183015290517f1122ce06fdade2a6957cb8c770940752a5693c16576d83428ba6d0e37a4744509181900360600190a160075461054b90610fd9565b506007546105599033610fe8565b50565b600554600654600854600954600480546060955f958695869586959460ff909316926001600160a01b0390911690859061059590611834565b80601f01602080910402602001604051908101604052809291908181526020018280546105c190611834565b801561060c5780601f106105e35761010080835404028352916020019161060c565b820191905f5260205f20905b8154815290600101906020018083116105ef57829003601f168201915b50505050509450945094509450945094509091929394565b60048054819061063390611834565b80601f016020809104026020016040519081016040528092919081815260200182805461065f90611834565b80156106aa5780601f10610681576101008083540402835291602001916106aa565b820191905f5260205f20905b81548152906001019060200180831161068d57829003601f168201915b50505060018401546002850154600386015460048701546005909701549596929560ff909216945092506001600160a01b031686565b6106e8610ffc565b6106f15f611028565b565b6106fb610ffc565b60065460ff166107455760405162461bcd60e51b8152602060048201526015602482015274105d58dd1a5bdb881b9bdd08199a5b985b1a5e9959605a1b60448201526064016102fb565b6007546107645760405162461bcd60e51b81526004016102fb906117d9565b600954600754600854604080516001600160a01b039094168452602084019290925282820152517f1122ce06fdade2a6957cb8c770940752a5693c16576d83428ba6d0e37a4744509181900360600190a16007546107c190610fd9565b506007546107cf9033610fe8565b5050565b600a5460ff166106f157600a805460ff19166001179055565b60065460ff166108365760405162461bcd60e51b8152602060048201526015602482015274105d58dd1a5bdb881b9bdd08199a5b985b1a5e9959605a1b60448201526064016102fb565b6009546001600160a01b031633146108815760405162461bcd60e51b815260206004820152600e60248201526d2737ba103a3432903bb4b73732b960911b60448201526064016102fb565b600954604080516001600160a01b039092168252602082018390527f4cc0a9c4a99ddc700de1af2c9f916a7cbfdb71f14801ccff94061ad1ef8a804091015b60405180910390a150565b600381815481106108da575f80fd5b5f9182526020909120600390910201805460018201546002909201546001600160a01b03909116925083565b61090e610ffc565b5f82116109675760405162461bcd60e51b815260206004820152602160248201527f42696464696e67206475726174696f6e206d75737420626520706f73697469766044820152606560f81b60648201526084016102fb565b5f8151116109b75760405162461bcd60e51b815260206004820152601860248201527f4d6574616461746120434944206973207265717569726564000000000000000060448201526064016102fb565b600a5460ff1680156109cb57506005544211155b80156109da575060065460ff16155b15610a275760405162461bcd60e51b815260206004820152601e60248201527f50726576696f75732061756374696f6e206e6f742066696e616c697a6564000060448201526064016102fb565b600a5460ff16610a3957610a396107d3565b6040518060c001604052808281526020018342610a56919061186c565b81525f60208201819052604082018190526060820181905260809091015280516004908190610a8590826118d7565b5060208201516001820155604082015160028201805460ff191691151591909117905560608201516003808301919091556080830151600483015560a090920151600590910180546001600160a01b0319166001600160a01b03909216919091179055610af2905f6114f7565b600a805461ff00191690555f600b556005546040517f84dbbe572fcd8281f88fbf55359ad5039443609c2304288d3c8816dd3bb9fc2191610b34918490611993565b60405180910390a15050565b60018054610b4d90611834565b80601f0160208091040260200160405190810160405280929190818152602001828054610b7990611834565b8015610bc45780601f10610b9b57610100808354040283529160200191610bc4565b820191905f5260205f20905b815481529060010190602001808311610ba757829003601f168201915b505050505081565b610bd4610ffc565b5f815111610c245760405162461bcd60e51b815260206004820152601e60248201527f5075626c6963206b6579205552492063616e6e6f7420626520656d707479000060448201526064016102fb565b6001610c3082826118d7565b504260028190556040517fde6d55f540d15f192e6a2516799842e8cbf56cdad80f7276552b949bba4bf6fa916108c0918491906119ab565b610c70610ffc565b6001600160a01b038116610c9957604051631e4fbdf760e01b81525f60048201526024016102fb565b61055981611028565b600a5460ff16610cee5760405162461bcd60e51b8152602060048201526017602482015276105d58dd1a5bdb881b9bdd081a5b9a5d1a585b1a5e9959604a1b60448201526064016102fb565b6005544210610d335760405162461bcd60e51b8152602060048201526011602482015270105d58dd1a5bdb881a185cc8195b991959607a1b60448201526064016102fb565b5f610d738484848080601f0160208091040260200160405190810160405280939291908181526020018383808284375f9201919091525061107792505050565b905080610dd15760405162461bcd60e51b815260206004820152602660248201527f456e6372797074656420626964206e6f742070726f7065726c7920696e697469604482015265185b1a5e995960d21b60648201526084016102fb565b6003805460408051606081018252338082526020808301878152428486019081526001870188555f88905293517fc2575a0e9e593c00f959f8c92f12db2869c3395a3b0502d05e2516446f71f85b97870297880180546001600160a01b0319166001600160a01b03909216919091179055517fc2575a0e9e593c00f959f8c92f12db2869c3395a3b0502d05e2516446f71f85c87015591517fc2575a0e9e593c00f959f8c92f12db2869c3395a3b0502d05e2516446f71f85d9095019490945590518281529192917f0862512267aa2317caa9475b7e771425e6b897509aade0be0d8fc6f5ce5fdd18910160405180910390a2805f03610f095760078290555f600855600980546001600160a01b03191633908117909155610ef29061108b565b600b55600a805461ff001916610100179055610fa2565b600754610f665760405162461bcd60e51b815260206004820152602560248201527f43757272656e742077696e6e696e67207072696365206e6f7420696e697469616044820152641b1a5e995960da1b60648201526084016102fb565b5f610f76836004600301546110a0565b9050610f8d81610f853361108b565b600b546110ce565b600b55600754610f9d90846110e2565b600755505b610fab82610fd9565b50610fb68233610fe8565b50600754610fc390610fd9565b50600754610fd19033610fe8565b505050505050565b5f610fe48230611110565b5090565b5f610ff38383611110565b50815b92915050565b5f546001600160a01b031633146106f15760405163118cdaa760e01b81523360048201526024016102fb565b5f80546001600160a01b038381166001600160a01b0319831681178455604051919092169283917f8be0079c531659141344cd1fd0a4f28419497f9722a3daafe3b4186f6b6457e09190a35050565b5f61108483836006611186565b9392505050565b5f610ff6826001600160a01b03166007611280565b5f826110b2576110af5f61130f565b92505b816110c3576110c05f61130f565b91505b61108483835f61132d565b5f6110da8484846113ea565b949350505050565b5f826110f4576110f15f61130f565b92505b81611105576111025f61130f565b91505b61108483835f611480565b5f5f80516020611a708339815191528054604051635ca4b5b160e11b8152600481018690526001600160a01b03858116602483015292935091169063b9496b62906044015f604051808303815f87803b15801561116b575f80fd5b505af115801561117d573d5f803e3d5ffd5b50505050505050565b5f80516020611a508339815191525460405163196d0b9b60e01b81525f915f80516020611a70833981519152916001600160a01b039091169063196d0b9b906111d99088903390899089906004016119ec565b6020604051808303815f875af11580156111f5573d5f803e3d5ffd5b505050506040513d601f19601f820116820180604052508101906112199190611a24565b8154604051630f8e573b60e21b8152600481018390523360248201529193506001600160a01b031690633e395cec906044015f604051808303815f87803b158015611262575f80fd5b505af1158015611274573d5f803e3d5ffd5b50505050509392505050565b5f80516020611a5083398151915254604051639cd07acb60e01b81525f915f80516020611a70833981519152916001600160a01b0390911690639cd07acb906112cf9087908790600401611a3b565b6020604051808303815f875af11580156112eb573d5f803e3d5ffd5b505050506040513d601f19601f820116820180604052508101906110da9190611a24565b5f610ff6826fffffffffffffffffffffffffffffffff166006611280565b5f8082156113405750600160f81b611343565b505f5b5f80516020611a50833981519152546040516385362ee760e01b815260048101879052602481018690526001600160f81b0319831660448201525f80516020611a70833981519152916001600160a01b0316906385362ee7906064015b6020604051808303815f875af11580156113bc573d5f803e3d5ffd5b505050506040513d601f19601f820116820180604052508101906113e09190611a24565b9695505050505050565b5f805f80516020611a708339815191526001810154604051637702dcff60e01b81526004810188905260248101879052604481018690529192506001600160a01b031690637702dcff906064016020604051808303815f875af1158015611453573d5f803e3d5ffd5b505050506040513d601f19601f820116820180604052508101906114779190611a24565b95945050505050565b5f8082156114935750600160f81b611496565b505f5b5f80516020611a5083398151915254604051630d8c635960e21b815260048101879052602481018690526001600160f81b0319831660448201525f80516020611a70833981519152916001600160a01b0316906336318d64906064016113a0565b5080545f8255600302905f5260205f209081019061055991905b80821115610fe45780546001600160a01b03191681555f600182018190556002820155600301611511565b5f81518084525f5b8181101561156057602081850181015186830182015201611544565b505f602082860101526020601f19601f83011685010191505092915050565b60a081525f61159160a083018861153c565b602083019690965250921515604084015260608301919091526001600160a01b0316608090910152919050565b60c081525f6115d060c083018961153c565b6020830197909752509315156040850152606084019290925260808301526001600160a01b031660a090910152919050565b5f60208284031215611612575f80fd5b5035919050565b634e487b7160e01b5f52604160045260245ffd5b5f82601f83011261163c575f80fd5b813567ffffffffffffffff8082111561165757611657611619565b604051601f8301601f19908116603f0116810190828211818310171561167f5761167f611619565b81604052838152866020858801011115611697575f80fd5b836020870160208301375f602085830101528094505050505092915050565b5f80604083850312156116c7575f80fd5b82359150602083013567ffffffffffffffff8111156116e4575f80fd5b6116f08582860161162d565b9150509250929050565b602081525f611084602083018461153c565b5f6020828403121561171c575f80fd5b813567ffffffffffffffff811115611732575f80fd5b6110da8482850161162d565b5f6020828403121561174e575f80fd5b81356001600160a01b0381168114611084575f80fd5b5f805f60408486031215611776575f80fd5b83359250602084013567ffffffffffffffff80821115611794575f80fd5b818601915086601f8301126117a7575f80fd5b8135818111156117b5575f80fd5b8760208285010111156117c6575f80fd5b6020830194508093505050509250925092565b60208082526027908201527f456e637279707465642077696e6e696e67207072696365206e6f7420696e69746040820152661a585b1a5e995960ca1b606082015260800190565b634e487b7160e01b5f52603260045260245ffd5b600181811c9082168061184857607f821691505b60208210810361186657634e487b7160e01b5f52602260045260245ffd5b50919050565b80820180821115610ff657634e487b7160e01b5f52601160045260245ffd5b601f8211156118d257805f5260205f20601f840160051c810160208510156118b05750805b601f840160051c820191505b818110156118cf575f81556001016118bc565b50505b505050565b815167ffffffffffffffff8111156118f1576118f1611619565b611905816118ff8454611834565b8461188b565b602080601f831160018114611938575f84156119215750858301515b5f19600386901b1c1916600185901b178555610fd1565b5f85815260208120601f198616915b8281101561196657888601518255948401946001909101908401611947565b508582101561198357878501515f19600388901b60f8161c191681555b5050505050600190811b01905550565b828152604060208201525f6110da604083018461153c565b604081525f6119bd604083018561153c565b90508260208301529392505050565b605481106119e857634e487b7160e01b5f52602160045260245ffd5b9052565b8481526001600160a01b03841660208201526080604082018190525f90611a159083018561153c565b905061147760608301846119cc565b5f60208284031215611a34575f80fd5b5051919050565b8281526040810161108460208301846119cc56fe9e7b61f58c47dc699ac88507c4f5bb9f121c03808c5676a8078fe583e46497019e7b61f58c47dc699ac88507c4f5bb9f121c03808c5676a8078fe583e4649700a26469706673582212205236e8be63d67e72371e9d78b02e60ce177ffa830bac43b49686328c2b25229c64736f6c63430008180033",
  "linkReferences": {},
  "deployedLinkReferences": {}
}