{
  "_format": "hh-sol-artifact-1",
  "contractName": "ZepoMINTFHEAuctionSmartFinalize",
  "sourceName": "contracts/ZepoMINTFHEAuctionSmartFinalize.sol",
  "abi": [
    {
      "inputs": [],
      "stateMutability": "nonpayable",
      "type": "constructor"
    },
    {
      "inputs": [
        {
          "internalType": "address",
          "name": "sender",
          "type": "address"
        },
        {
          "internalType": "uint256",
          "name": "tokenId",
          "type": "uint256"
        },
        {
          "internalType": "address",
          "name": "owner",
          "type": "address"
        }
      ],
      "name": "ERC721IncorrectOwner",
      "type": "error"
    },
    {
      "inputs": [
        {
          "internalType": "address",
          "name": "operator",
          "type": "address"
        },
        {
          "internalType": "uint256",
          "name": "tokenId",
          "type": "uint256"
        }
      ],
      "name": "ERC721InsufficientApproval",
      "type": "error"
    },
    {
      "inputs": [
        {
          "internalType": "address",
          "name": "approver",
          "type": "address"
        }
      ],
      "name": "ERC721InvalidApprover",
      "type": "error"
    },
    {
      "inputs": [
        {
          "internalType": "address",
          "name": "operator",
          "type": "address"
        }
      ],
      "name": "ERC721InvalidOperator",
      "type": "error"
    },
    {
      "inputs": [
        {
          "internalType": "address",
          "name": "owner",
          "type": "address"
        }
      ],
      "name": "ERC721InvalidOwner",
      "type": "error"
    },
    {
      "inputs": [
        {
          "internalType": "address",
          "name": "receiver",
          "type": "address"
        }
      ],
      "name": "ERC721InvalidReceiver",
      "type": "error"
    },
    {
      "inputs": [
        {
          "internalType": "address",
          "name": "sender",
          "type": "address"
        }
      ],
      "name": "ERC721InvalidSender",
      "type": "error"
    },
    {
      "inputs": [
        {
          "internalType": "uint256",
          "name": "tokenId",
          "type": "uint256"
        }
      ],
      "name": "ERC721NonexistentToken",
      "type": "error"
    },
    {
      "inputs": [
        {
          "internalType": "address",
          "name": "owner",
          "type": "address"
        }
      ],
      "name": "OwnableInvalidOwner",
      "type": "error"
    },
    {
      "inputs": [
        {
          "internalType": "address",
          "name": "account",
          "type": "address"
        }
      ],
      "name": "OwnableUnauthorizedAccount",
      "type": "error"
    },
    {
      "anonymous": false,
      "inputs": [
        {
          "indexed": true,
          "internalType": "address",
          "name": "owner",
          "type": "address"
        },
        {
          "indexed": true,
          "internalType": "address",
          "name": "approved",
          "type": "address"
        },
        {
          "indexed": true,
          "internalType": "uint256",
          "name": "tokenId",
          "type": "uint256"
        }
      ],
      "name": "Approval",
      "type": "event"
    },
    {
      "anonymous": false,
      "inputs": [
        {
          "indexed": true,
          "internalType": "address",
          "name": "owner",
          "type": "address"
        },
        {
          "indexed": true,
          "internalType": "address",
          "name": "operator",
          "type": "address"
        },
        {
          "indexed": false,
          "internalType": "bool",
          "name": "approved",
          "type": "bool"
        }
      ],
      "name": "ApprovalForAll",
      "type": "event"
    },
    {
      "anonymous": false,
      "inputs": [
        {
          "indexed": false,
          "internalType": "uint256",
          "name": "endTime",
          "type": "uint256"
        },
        {
          "indexed": false,
          "internalType": "string",
          "name": "metadataCID",
          "type": "string"
        }
      ],
      "name": "AuctionCreated",
      "type": "event"
    },
    {
      "anonymous": false,
      "inputs": [
        {
          "indexed": false,
          "internalType": "eaddress",
          "name": "winner",
          "type": "bytes32"
        },
        {
          "indexed": false,
          "internalType": "euint128",
          "name": "encryptedPrice",
          "type": "bytes32"
        },
        {
          "indexed": false,
          "internalType": "uint256",
          "name": "winnerIndex",
          "type": "uint256"
        }
      ],
      "name": "AuctionFinalized",
      "type": "event"
    },
    {
      "anonymous": false,
      "inputs": [
        {
          "indexed": true,
          "internalType": "address",
          "name": "bidder",
          "type": "address"
        },
        {
          "indexed": false,
          "internalType": "uint256",
          "name": "bidIndex",
          "type": "uint256"
        }
      ],
      "name": "BidSubmitted",
      "type": "event"
    },
    {
      "anonymous": false,
      "inputs": [
        {
          "indexed": false,
          "internalType": "address",
          "name": "winner",
          "type": "address"
        },
        {
          "indexed": false,
          "internalType": "uint256",
          "name": "tokenId",
          "type": "uint256"
        }
      ],
      "name": "NFTMinted",
      "type": "event"
    },
    {
      "anonymous": false,
      "inputs": [
        {
          "indexed": true,
          "internalType": "address",
          "name": "previousOwner",
          "type": "address"
        },
        {
          "indexed": true,
          "internalType": "address",
          "name": "newOwner",
          "type": "address"
        }
      ],
      "name": "OwnershipTransferred",
      "type": "event"
    },
    {
      "anonymous": false,
      "inputs": [
        {
          "indexed": false,
          "internalType": "string",
          "name": "newPublicKeyURI",
          "type": "string"
        },
        {
          "indexed": false,
          "internalType": "uint256",
          "name": "timestamp",
          "type": "uint256"
        }
      ],
      "name": "PublicKeyUpdated",
      "type": "event"
    },
    {
      "anonymous": false,
      "inputs": [
        {
          "indexed": false,
          "internalType": "string",
          "name": "reason",
          "type": "string"
        },
        {
          "indexed": false,
          "internalType": "uint256",
          "name": "bidCount",
          "type": "uint256"
        }
      ],
      "name": "SmartFinalization",
      "type": "event"
    },
    {
      "anonymous": false,
      "inputs": [
        {
          "indexed": true,
          "internalType": "address",
          "name": "from",
          "type": "address"
        },
        {
          "indexed": true,
          "internalType": "address",
          "name": "to",
          "type": "address"
        },
        {
          "indexed": true,
          "internalType": "uint256",
          "name": "tokenId",
          "type": "uint256"
        }
      ],
      "name": "Transfer",
      "type": "event"
    },
    {
      "inputs": [
        {
          "internalType": "address",
          "name": "to",
          "type": "address"
        },
        {
          "internalType": "uint256",
          "name": "tokenId",
          "type": "uint256"
        }
      ],
      "name": "approve",
      "outputs": [],
      "stateMutability": "nonpayable",
      "type": "function"
    },
    {
      "inputs": [],
      "name": "auctionInitialized",
      "outputs": [
        {
          "internalType": "bool",
          "name": "",
          "type": "bool"
        }
      ],
      "stateMutability": "view",
      "type": "function"
    },
    {
      "inputs": [
        {
          "internalType": "address",
          "name": "owner",
          "type": "address"
        }
      ],
      "name": "balanceOf",
      "outputs": [
        {
          "internalType": "uint256",
          "name": "",
          "type": "uint256"
        }
      ],
      "stateMutability": "view",
      "type": "function"
    },
    {
      "inputs": [
        {
          "internalType": "uint256",
          "name": "",
          "type": "uint256"
        }
      ],
      "name": "bids",
      "outputs": [
        {
          "internalType": "euint128",
          "name": "encryptedAmount",
          "type": "bytes32"
        },
        {
          "internalType": "eaddress",
          "name": "bidder",
          "type": "bytes32"
        },
        {
          "internalType": "bool",
          "name": "revealed",
          "type": "bool"
        }
      ],
      "stateMutability": "view",
      "type": "function"
    },
    {
      "inputs": [
        {
          "internalType": "uint256",
          "name": "biddingDurationSeconds",
          "type": "uint256"
        },
        {
          "internalType": "string",
          "name": "metadataCID",
          "type": "string"
        }
      ],
      "name": "createAuction",
      "outputs": [],
      "stateMutability": "nonpayable",
      "type": "function"
    },
    {
      "inputs": [],
      "name": "currentAuction",
      "outputs": [
        {
          "internalType": "string",
          "name": "metadataCID",
          "type": "string"
        },
        {
          "internalType": "uint256",
          "name": "endTime",
          "type": "uint256"
        },
        {
          "internalType": "bool",
          "name": "finalized",
          "type": "bool"
        },
        {
          "internalType": "bool",
          "name": "initialized",
          "type": "bool"
        }
      ],
      "stateMutability": "view",
      "type": "function"
    },
    {
      "inputs": [
        {
          "internalType": "uint256",
          "name": "tokenId",
          "type": "uint256"
        }
      ],
      "name": "getApproved",
      "outputs": [
        {
          "internalType": "address",
          "name": "",
          "type": "address"
        }
      ],
      "stateMutability": "view",
      "type": "function"
    },
    {
      "inputs": [],
      "name": "getAuctionDetails",
      "outputs": [
        {
          "components": [
            {
              "internalType": "string",
              "name": "metadataCID",
              "type": "string"
            },
            {
              "internalType": "uint256",
              "name": "endTime",
              "type": "uint256"
            },
            {
              "internalType": "bool",
              "name": "finalized",
              "type": "bool"
            },
            {
              "internalType": "bool",
              "name": "initialized",
              "type": "bool"
            }
          ],
          "internalType": "struct ZepoMINTFHEAuctionSmartFinalize.Auction",
          "name": "",
          "type": "tuple"
        }
      ],
      "stateMutability": "view",
      "type": "function"
    },
    {
      "inputs": [
        {
          "internalType": "uint256",
          "name": "index",
          "type": "uint256"
        }
      ],
      "name": "getBid",
      "outputs": [
        {
          "components": [
            {
              "internalType": "euint128",
              "name": "encryptedAmount",
              "type": "bytes32"
            },
            {
              "internalType": "eaddress",
              "name": "bidder",
              "type": "bytes32"
            },
            {
              "internalType": "bool",
              "name": "revealed",
              "type": "bool"
            }
          ],
          "internalType": "struct ZepoMINTFHEAuctionSmartFinalize.Bid",
          "name": "",
          "type": "tuple"
        }
      ],
      "stateMutability": "view",
      "type": "function"
    },
    {
      "inputs": [],
      "name": "getBidCount",
      "outputs": [
        {
          "internalType": "uint256",
          "name": "",
          "type": "uint256"
        }
      ],
      "stateMutability": "view",
      "type": "function"
    },
    {
      "inputs": [],
      "name": "getPublicKeyURI",
      "outputs": [
        {
          "internalType": "string",
          "name": "",
          "type": "string"
        }
      ],
      "stateMutability": "view",
      "type": "function"
    },
    {
      "inputs": [],
      "name": "hasAuctionEnded",
      "outputs": [
        {
          "internalType": "bool",
          "name": "",
          "type": "bool"
        }
      ],
      "stateMutability": "view",
      "type": "function"
    },
    {
      "inputs": [
        {
          "internalType": "string",
          "name": "_publicKeyURI",
          "type": "string"
        }
      ],
      "name": "initialize",
      "outputs": [],
      "stateMutability": "nonpayable",
      "type": "function"
    },
    {
      "inputs": [
        {
          "internalType": "address",
          "name": "owner",
          "type": "address"
        },
        {
          "internalType": "address",
          "name": "operator",
          "type": "address"
        }
      ],
      "name": "isApprovedForAll",
      "outputs": [
        {
          "internalType": "bool",
          "name": "",
          "type": "bool"
        }
      ],
      "stateMutability": "view",
      "type": "function"
    },
    {
      "inputs": [
        {
          "internalType": "uint256",
          "name": "tokenId",
          "type": "uint256"
        }
      ],
      "name": "mintNFTToWinner",
      "outputs": [],
      "stateMutability": "nonpayable",
      "type": "function"
    },
    {
      "inputs": [],
      "name": "name",
      "outputs": [
        {
          "internalType": "string",
          "name": "",
          "type": "string"
        }
      ],
      "stateMutability": "view",
      "type": "function"
    },
    {
      "inputs": [],
      "name": "owner",
      "outputs": [
        {
          "internalType": "address",
          "name": "",
          "type": "address"
        }
      ],
      "stateMutability": "view",
      "type": "function"
    },
    {
      "inputs": [
        {
          "internalType": "uint256",
          "name": "tokenId",
          "type": "uint256"
        }
      ],
      "name": "ownerOf",
      "outputs": [
        {
          "internalType": "address",
          "name": "",
          "type": "address"
        }
      ],
      "stateMutability": "view",
      "type": "function"
    },
    {
      "inputs": [],
      "name": "protocolId",
      "outputs": [
        {
          "internalType": "uint256",
          "name": "",
          "type": "uint256"
        }
      ],
      "stateMutability": "pure",
      "type": "function"
    },
    {
      "inputs": [],
      "name": "publicKeyURI",
      "outputs": [
        {
          "internalType": "string",
          "name": "",
          "type": "string"
        }
      ],
      "stateMutability": "view",
      "type": "function"
    },
    {
      "inputs": [],
      "name": "renounceOwnership",
      "outputs": [],
      "stateMutability": "nonpayable",
      "type": "function"
    },
    {
      "inputs": [
        {
          "internalType": "address",
          "name": "from",
          "type": "address"
        },
        {
          "internalType": "address",
          "name": "to",
          "type": "address"
        },
        {
          "internalType": "uint256",
          "name": "tokenId",
          "type": "uint256"
        }
      ],
      "name": "safeTransferFrom",
      "outputs": [],
      "stateMutability": "nonpayable",
      "type": "function"
    },
    {
      "inputs": [
        {
          "internalType": "address",
          "name": "from",
          "type": "address"
        },
        {
          "internalType": "address",
          "name": "to",
          "type": "address"
        },
        {
          "internalType": "uint256",
          "name": "tokenId",
          "type": "uint256"
        },
        {
          "internalType": "bytes",
          "name": "data",
          "type": "bytes"
        }
      ],
      "name": "safeTransferFrom",
      "outputs": [],
      "stateMutability": "nonpayable",
      "type": "function"
    },
    {
      "inputs": [
        {
          "internalType": "address",
          "name": "operator",
          "type": "address"
        },
        {
          "internalType": "bool",
          "name": "approved",
          "type": "bool"
        }
      ],
      "name": "setApprovalForAll",
      "outputs": [],
      "stateMutability": "nonpayable",
      "type": "function"
    },
    {
      "inputs": [],
      "name": "smartFinalize",
      "outputs": [],
      "stateMutability": "nonpayable",
      "type": "function"
    },
    {
      "inputs": [
        {
          "internalType": "externalEuint128",
          "name": "encryptedAmount",
          "type": "bytes32"
        },
        {
          "internalType": "externalEaddress",
          "name": "bidder",
          "type": "bytes32"
        },
        {
          "internalType": "bytes",
          "name": "amountProof",
          "type": "bytes"
        },
        {
          "internalType": "bytes",
          "name": "bidderProof",
          "type": "bytes"
        }
      ],
      "name": "submitBid",
      "outputs": [],
      "stateMutability": "nonpayable",
      "type": "function"
    },
    {
      "inputs": [
        {
          "internalType": "bytes4",
          "name": "interfaceId",
          "type": "bytes4"
        }
      ],
      "name": "supportsInterface",
      "outputs": [
        {
          "internalType": "bool",
          "name": "",
          "type": "bool"
        }
      ],
      "stateMutability": "view",
      "type": "function"
    },
    {
      "inputs": [],
      "name": "symbol",
      "outputs": [
        {
          "internalType": "string",
          "name": "",
          "type": "string"
        }
      ],
      "stateMutability": "view",
      "type": "function"
    },
    {
      "inputs": [
        {
          "internalType": "uint256",
          "name": "tokenId",
          "type": "uint256"
        }
      ],
      "name": "tokenURI",
      "outputs": [
        {
          "internalType": "string",
          "name": "",
          "type": "string"
        }
      ],
      "stateMutability": "view",
      "type": "function"
    },
    {
      "inputs": [
        {
          "internalType": "address",
          "name": "from",
          "type": "address"
        },
        {
          "internalType": "address",
          "name": "to",
          "type": "address"
        },
        {
          "internalType": "uint256",
          "name": "tokenId",
          "type": "uint256"
        }
      ],
      "name": "transferFrom",
      "outputs": [],
      "stateMutability": "nonpayable",
      "type": "function"
    },
    {
      "inputs": [
        {
          "internalType": "address",
          "name": "newOwner",
          "type": "address"
        }
      ],
      "name": "transferOwnership",
      "outputs": [],
      "stateMutability": "nonpayable",
      "type": "function"
    },
    {
      "inputs": [],
      "name": "winnerEncrypted",
      "outputs": [
        {
          "internalType": "eaddress",
          "name": "",
          "type": "bytes32"
        }
      ],
      "stateMutability": "view",
      "type": "function"
    },
    {
      "inputs": [],
      "name": "winningBidEncrypted",
      "outputs": [
        {
          "internalType": "euint128",
          "name": "",
          "type": "bytes32"
        }
      ],
      "stateMutability": "view",
      "type": "function"
    },
    {
      "inputs": [],
      "name": "winningBidIndex",
      "outputs": [
        {
          "internalType": "uint256",
          "name": "",
          "type": "uint256"
        }
      ],
      "stateMutability": "view",
      "type": "function"
    }
  ],
  "bytecode": "0x600e805460ff1916905560a06040525f6080908152600f90620000239082620002de565b5034801562000030575f80fd5b50604080518082018252600c81526b16995c1bd35253950813919560a21b60208083019190915282518084019093526005835264169353919560da1b908301529033806200009757604051631e4fbdf760e01b81525f600482015260240160405180910390fd5b620000a281620001f1565b506001620000b18382620002de565b506002620000c08282620002de565b50506040805160808101825273687820221192c5b662b25367f70076a37bc79b6c80825273848b0066793bcc60346da1f49049357399b8d5956020830181905273b6e160b1ff80d67bfe90a85ee06ce0a2613607d1938301849052731364cbbf2cdf5032c47d8226a6f6fbd2afcdacac60609093018390527f9e7b61f58c47dc699ac88507c4f5bb9f121c03808c5676a8078fe583e464970080546001600160a01b031990811690931790557f9e7b61f58c47dc699ac88507c4f5bb9f121c03808c5676a8078fe583e46497018054831690911790557f9e7b61f58c47dc699ac88507c4f5bb9f121c03808c5676a8078fe583e4649702805482169093179092557f9e7b61f58c47dc699ac88507c4f5bb9f121c03808c5676a8078fe583e4649703805490921617905550620003aa565b5f80546001600160a01b038381166001600160a01b0319831681178455604051919092169283917f8be0079c531659141344cd1fd0a4f28419497f9722a3daafe3b4186f6b6457e09190a35050565b634e487b7160e01b5f52604160045260245ffd5b600181811c908216806200026957607f821691505b6020821081036200028857634e487b7160e01b5f52602260045260245ffd5b50919050565b601f821115620002d957805f5260205f20601f840160051c81016020851015620002b55750805b601f840160051c820191505b81811015620002d6575f8155600101620002c1565b50505b505050565b81516001600160401b03811115620002fa57620002fa62000240565b62000312816200030b845462000254565b846200028e565b602080601f83116001811462000348575f8415620003305750858301515b5f19600386901b1c1916600185901b178555620003a2565b5f85815260208120601f198616915b82811015620003785788860151825594840194600190910190840162000357565b50858210156200039657878501515f19600388901b60f8161c191681555b505060018460011b0185555b505050505050565b61295680620003b85f395ff3fe608060405234801561000f575f80fd5b50600436106101fd575f3560e01c80638f1b8f3211610114578063cb3c24d3116100a9578063da1f12ab11610079578063da1f12ab14610441578063e985e9c514610449578063ef0ec4501461045c578063f2fde38b14610465578063f62d188814610478575f80fd5b8063cb3c24d314610415578063cead22621461041d578063d1b4c21814610426578063d1e74e9a1461042e575f80fd5b8063adaa1992116100e4578063adaa1992146103d3578063b88d4fde146103e6578063b9d0baf5146103f9578063c87b56dd14610402575f80fd5b80638f1b8f32146103a357806395d89b41146103b0578063a0484dda146103b8578063a22cb465146103c0575f80fd5b80633c889e6f1161019557806363415bc11161016557806363415bc11461035d5780636352211e1461036557806370a0823114610378578063715018a61461038b5780638da5cb5b14610393575f80fd5b80633c889e6f146102cb57806342842e0e146103025780634423c5f114610315578063496a698d14610345575f80fd5b806312c2f639116101d057806312c2f6391461027e57806323b872dd1461029157806328f6a48a146102a45780633a6dcea2146102b6575f80fd5b806301ffc9a71461020157806306fdde0314610229578063081812fc1461023e578063095ea7b314610269575b5f80fd5b61021461020f36600461216f565b61048b565b60405190151581526020015b60405180910390f35b6102316104dc565b60405161022091906121cd565b61025161024c3660046121df565b61056c565b6040516001600160a01b039091168152602001610220565b61027c610277366004612211565b610593565b005b61027c61028c3660046122d6565b6105a2565b61027c61029f366004612348565b610782565b600a545b604051908152602001610220565b6102be61080b565b6040516102209190612381565b6102de6102d93660046121df565b6108f9565b60408051825181526020808401519082015291810151151590820152606001610220565b61027c610310366004612348565b6109b1565b6103286103233660046121df565b6109d0565b604080519384526020840192909252151590820152606001610220565b61034d610a04565b60405161022094939291906123ca565b61027c610aad565b6102516103733660046121df565b610d88565b6102a86103863660046123fa565b610d92565b61027c610dd7565b5f546001600160a01b0316610251565b600e546102149060ff1681565b610231610dea565b610214610df9565b61027c6103ce366004612413565b610e19565b61027c6103e136600461244c565b610e24565b61027c6103f4366004612490565b611033565b6102a8600c5481565b6102316104103660046121df565b61104b565b61023161110b565b6102a8600b5481565b61023161111a565b61027c61043c3660046121df565b6111a6565b6127116102a8565b6102146104573660046124e8565b611258565b6102a8600d5481565b61027c6104733660046123fa565b611285565b61027c610486366004612519565b6112bf565b5f6001600160e01b031982166380ac58cd60e01b14806104bb57506001600160e01b03198216635b5e139f60e01b145b806104d657506301ffc9a760e01b6001600160e01b03198316145b92915050565b6060600180546104eb9061254b565b80601f01602080910402602001604051908101604052809291908181526020018280546105179061254b565b80156105625780601f1061053957610100808354040283529160200191610562565b820191905f5260205f20905b81548152906001019060200180831161054557829003601f168201915b5050505050905090565b5f61057682611357565b505f828152600560205260409020546001600160a01b03166104d6565b61059e82823361138f565b5050565b600954610100900460ff166105f25760405162461bcd60e51b815260206004820152601160248201527027379030b1ba34bb329030bab1ba34b7b760791b60448201526064015b60405180910390fd5b60095460ff16156106395760405162461bcd60e51b8152602060048201526011602482015270105d58dd1a5bdb88199a5b985b1a5e9959607a1b60448201526064016105e9565b600854421061067a5760405162461bcd60e51b815260206004820152600d60248201526c109a59191a5b99c8195b991959609a1b60448201526064016105e9565b5f610685858461139c565b90505f61069285846113b0565b600a80546040805160608101825286815260208082018681525f83850181815260018701885596905291517fc65a7bb8d6351c1cf70c95a316cc6a92839c986682d98bc35f958f4883f9d2a8600386029081019190915591517fc65a7bb8d6351c1cf70c95a316cc6a92839c986682d98bc35f958f4883f9d2a983015593517fc65a7bb8d6351c1cf70c95a316cc6a92839c986682d98bc35f958f4883f9d2aa909101805460ff1916911515919091179055518181529293509133917f0862512267aa2317caa9475b7e771425e6b897509aade0be0d8fc6f5ce5fdd18910160405180910390a250505050505050565b6001600160a01b0382166107ab57604051633250574960e11b81525f60048201526024016105e9565b5f6107b78383336113bd565b9050836001600160a01b0316816001600160a01b031614610805576040516364283d7b60e01b81526001600160a01b03808616600483015260248201849052821660448201526064016105e9565b50505050565b6040805160808101825260608082525f6020830181905292820183905281019190915260076040518060800160405290815f8201805461084a9061254b565b80601f01602080910402602001604051908101604052809291908181526020018280546108769061254b565b80156108c15780601f10610898576101008083540402835291602001916108c1565b820191905f5260205f20905b8154815290600101906020018083116108a457829003601f168201915b50505091835250506001820154602082015260029091015460ff80821615156040840152610100909104161515606090910152919050565b604080516060810182525f8082526020820181905291810191909152600a54821061095a5760405162461bcd60e51b8152602060048201526011602482015270092dcecc2d8d2c840c4d2c840d2dcc8caf607b1b60448201526064016105e9565b600a828154811061096d5761096d612583565b5f9182526020918290206040805160608101825260039093029091018054835260018101549383019390935260029092015460ff1615159181019190915292915050565b6109cb83838360405180602001604052805f815250611033565b505050565b600a81815481106109df575f80fd5b5f91825260209091206003909102018054600182015460029092015490925060ff1683565b600780548190610a139061254b565b80601f0160208091040260200160405190810160405280929190818152602001828054610a3f9061254b565b8015610a8a5780601f10610a6157610100808354040283529160200191610a8a565b820191905f5260205f20905b815481529060010190602001808311610a6d57829003601f168201915b50505050600183015460029093015491929160ff80821692506101009091041684565b610ab56114af565b600954610100900460ff16610b005760405162461bcd60e51b815260206004820152601160248201527027379030b1ba34bb329030bab1ba34b7b760791b60448201526064016105e9565b60095460ff1615610b475760405162461bcd60e51b8152602060048201526011602482015270105b1c9958591e48199a5b985b1a5e9959607a1b60448201526064016105e9565b600854421015610b8d5760405162461bcd60e51b8152602060048201526011602482015270105d58dd1a5bdb881b9bdd08195b991959607a1b60448201526064016105e9565b600a545f819003610c2c576009805460ff191660011790556040515f805160206128c183398151915290610bf0908390604080825260119082015270139bc8189a591cc81cdd589b5a5d1d1959607a1b6060820152602081019190915260800190565b60405180910390a1604080515f80825260208201819052918101919091525f805160206128e1833981519152906060015b60405180910390a150565b80600103610d7d57610c5f600a5f81548110610c4a57610c4a612583565b905f5260205f2090600302015f0154306114db565b50610c8c600a5f81548110610c7657610c76612583565b905f5260205f20906003020160010154306114db565b50600a5f81548110610ca057610ca0612583565b905f5260205f20906003020160010154600b81905550600a5f81548110610cc957610cc9612583565b5f9182526020822060039091020154600c55600d556009805460ff191660011790556040515f805160206128c183398151915290610d429083906040808252601d908201527f53696e676c6520626964202d206175746f6d617469632077696e6e65720000006060820152602081019190915260800190565b60405180910390a1600b54600c54600d54604080519384526020840192909252908201525f805160206128e183398151915290606001610c21565b610d856114ed565b50565b5f6104d682611357565b5f6001600160a01b038216610dbc576040516322718ad960e21b81525f60048201526024016105e9565b506001600160a01b03165f9081526004602052604090205490565b610ddf6114af565b610de85f611813565b565b6060600280546104eb9061254b565b6009545f90610100900460ff168015610e1457506008544210155b905090565b61059e338383611862565b610e2c6114af565b5f8211610e725760405162461bcd60e51b815260206004820152601460248201527304475726174696f6e206d757374206265203e20360641b60448201526064016105e9565b5f815111610eba5760405162461bcd60e51b815260206004820152601560248201527413595d1859185d184810d251081c995c5d5a5c9959605a1b60448201526064016105e9565b600954610100900460ff161580610ed3575060095460ff165b610f1f5760405162461bcd60e51b815260206004820152601e60248201527f50726576696f75732061756374696f6e206e6f742066696e616c697a6564000060448201526064016105e9565b5f610f2a83426125ab565b60408051608081018252848152602081018390525f9181019190915260016060820152909150600780610f5d8582612602565b506020820151600182015560408201516002909101805460609093015115156101000261ff00199215159290921661ffff19909316929092171790555b600a5415610fe357600a805480610fb357610fb36126be565b5f8281526020812060035f19909301928302018181556001810191909155600201805460ff191690559055610f9a565b5f600d55600e805460ff191660011790556040517f84dbbe572fcd8281f88fbf55359ad5039443609c2304288d3c8816dd3bb9fc219061102690839085906126d2565b60405180910390a1505050565b61103e848484610782565b6108053385858585611900565b5f818152600360205260409020546060906001600160a01b03166110a55760405162461bcd60e51b81526020600482015260116024820152702737b732bc34b9ba32b73a103a37b5b2b760791b60448201526064016105e9565b600954610100900460ff1680156110cb57505f60075f0180546110c79061254b565b9050115b156110f8576040516110e2906007906020016126ea565b6040516020818303038152906040529050919050565b505060408051602081019091525f815290565b6060600f80546104eb9061254b565b600f80546111279061254b565b80601f01602080910402602001604051908101604052809291908181526020018280546111539061254b565b801561119e5780601f106111755761010080835404028352916020019161119e565b820191905f5260205f20905b81548152906001019060200180831161118157829003601f168201915b505050505081565b6111ae6114af565b60095460ff166111f85760405162461bcd60e51b8152602060048201526015602482015274105d58dd1a5bdb881b9bdd08199a5b985b1a5e9959605a1b60448201526064016105e9565b60108054905f61120783612777565b919050555061121833601054611a27565b6010546040805133815260208101929092527f4cc0a9c4a99ddc700de1af2c9f916a7cbfdb71f14801ccff94061ad1ef8a8040910160405180910390a150565b6001600160a01b039182165f90815260066020908152604080832093909416825291909152205460ff1690565b61128d6114af565b6001600160a01b0381166112b657604051631e4fbdf760e01b81525f60048201526024016105e9565b610d8581611813565b6112c76114af565b600f80546112d49061254b565b1590506113195760405162461bcd60e51b8152602060048201526013602482015272105b1c9958591e481a5b9a5d1a585b1a5e9959606a1b60448201526064016105e9565b600f6113258282612602565b507fde6d55f540d15f192e6a2516799842e8cbf56cdad80f7276552b949bba4bf6fa8142604051610c2192919061278f565b5f818152600360205260408120546001600160a01b0316806104d657604051637e27328960e01b8152600481018490526024016105e9565b6109cb8383836001611a40565b5f6113a983836006611b44565b9392505050565b5f6113a983836007611b44565b5f828152600360205260408120546001600160a01b03908116908316156113e9576113e9818486611c3e565b6001600160a01b03811615611423576114045f855f80611a40565b6001600160a01b0381165f90815260046020526040902080545f190190555b6001600160a01b03851615611451576001600160a01b0385165f908152600460205260409020805460010190555b5f8481526003602052604080822080546001600160a01b0319166001600160a01b0389811691821790925591518793918516917fddf252ad1be2c89b69c2b068fc378daa952ba7f163c4a11628f55a4df523b3ef91a4949350505050565b5f546001600160a01b03163314610de85760405163118cdaa760e01b81523360048201526024016105e9565b5f6114e68383611ca2565b5090919050565b5f5b600a5481101561152f5761150f600a8281548110610c4a57610c4a612583565b50611526600a8281548110610c7657610c76612583565b506001016114ef565b505f8080808061154e6115495f546001600160a01b031690565b611d18565b90505f5b600a548110156116ab575f611589600a838154811061157357611573612583565b905f5260205f2090600302016001015484611d2d565b90505f6115b8600a84815481106115a2576115a2612583565b905f5260205f2090600302016001015485611d5b565b90508461161457600a83815481106115d2576115d2612583565b905f5260205f2090600302015f01549750600a83815481106115f6576115f6612583565b905f5260205f209060030201600101549650829550600194506116a1565b5f611640600a858154811061162b5761162b612583565b905f5260205f2090600302015f01548a611d89565b905061166e81600a868154811061165957611659612583565b905f5260205f2090600302015f01548b611db7565b985061169d81600a868154811061168757611687612583565b905f5260205f209060030201600101548a611db7565b9750505b5050600101611552565b50811561177257600b849055600c859055600d8390556009805460ff19166001179055600a546040515f805160206128c1833981519152916117379160408082526028908201527f4d756c7469706c652062696473202d204648452077696e6e657220646574657260608201526736b4b730ba34b7b760c11b6080820152602081019190915260a00190565b60405180910390a160408051858152602081018790529081018490525f805160206128e18339815191529060600160405180910390a161180c565b6009805460ff19166001179055600a546040515f805160206128c1833981519152916117d7916040808252601a908201527f416c6c206f776e65722062696473202d206e6f2077696e6e65720000000000006060820152602081019190915260800190565b60405180910390a1604080515f808252602082018190528183015290515f805160206128e18339815191529181900360600190a15b5050505050565b5f80546001600160a01b038381166001600160a01b0319831681178455604051919092169283917f8be0079c531659141344cd1fd0a4f28419497f9722a3daafe3b4186f6b6457e09190a35050565b6001600160a01b03821661189457604051630b61174360e31b81526001600160a01b03831660048201526024016105e9565b6001600160a01b038381165f81815260066020908152604080832094871680845294825291829020805460ff191686151590811790915591519182527f17307eab39ab6107e8899845ad3d59bd9653f200f220920489ca2b5937696c31910160405180910390a3505050565b6001600160a01b0383163b1561180c57604051630a85bd0160e11b81526001600160a01b0384169063150b7a02906119429088908890879087906004016127b0565b6020604051808303815f875af192505050801561197c575060408051601f3d908101601f19168201909252611979918101906127e2565b60015b6119e3573d8080156119a9576040519150601f19603f3d011682016040523d82523d5f602084013e6119ae565b606091505b5080515f036119db57604051633250574960e11b81526001600160a01b03851660048201526024016105e9565b805160208201fd5b6001600160e01b03198116630a85bd0160e11b14611a1f57604051633250574960e11b81526001600160a01b03851660048201526024016105e9565b505050505050565b61059e828260405180602001604052805f815250611dcb565b8080611a5457506001600160a01b03821615155b15611b15575f611a6384611357565b90506001600160a01b03831615801590611a8f5750826001600160a01b0316816001600160a01b031614155b8015611aa25750611aa08184611258565b155b15611acb5760405163a9fbf51f60e01b81526001600160a01b03841660048201526024016105e9565b8115611b135783856001600160a01b0316826001600160a01b03167f8c5be1e5ebec7d5bd14f71427d1e84f3dd0314c0f7b2291e5b200ac8c7c3b92560405160405180910390a45b505b50505f90815260056020526040902080546001600160a01b0319166001600160a01b0392909216919091179055565b5f805160206128a18339815191525460405163196d0b9b60e01b81525f915f80516020612901833981519152916001600160a01b039091169063196d0b9b90611b9790889033908990899060040161281d565b6020604051808303815f875af1158015611bb3573d5f803e3d5ffd5b505050506040513d601f19601f82011682018060405250810190611bd79190612855565b8154604051630f8e573b60e21b8152600481018390523360248201529193506001600160a01b031690633e395cec906044015f604051808303815f87803b158015611c20575f80fd5b505af1158015611c32573d5f803e3d5ffd5b50505050509392505050565b611c49838383611de2565b6109cb576001600160a01b038316611c7757604051637e27328960e01b8152600481018290526024016105e9565b60405163177e802f60e01b81526001600160a01b0383166004820152602481018290526044016105e9565b5f5f805160206129018339815191528054604051635ca4b5b160e11b8152600481018690526001600160a01b03858116602483015292935091169063b9496b62906044015f604051808303815f87803b158015611cfd575f80fd5b505af1158015611d0f573d5f803e3d5ffd5b50505050505050565b5f6104d6826001600160a01b03166007611e43565b5f82611d3f57611d3c5f611d18565b92505b81611d5057611d4d5f611d18565b91505b6113a983835f611ed2565b5f82611d6d57611d6a5f611d18565b92505b81611d7e57611d7b5f611d18565b91505b6113a983835f611f7f565b5f82611d9b57611d985f611fe2565b92505b81611dac57611da95f611fe2565b91505b6113a983835f612000565b5f611dc3848484612063565b949350505050565b611dd583836120f9565b6109cb335f858585611900565b5f6001600160a01b03831615801590611dc35750826001600160a01b0316846001600160a01b03161480611e1b5750611e1b8484611258565b80611dc35750505f908152600560205260409020546001600160a01b03908116911614919050565b5f805160206128a183398151915254604051639cd07acb60e01b81525f915f80516020612901833981519152916001600160a01b0390911690639cd07acb90611e92908790879060040161286c565b6020604051808303815f875af1158015611eae573d5f803e3d5ffd5b505050506040513d601f19601f82011682018060405250810190611dc39190612855565b5f808215611ee55750600160f81b611ee8565b505f5b5f805160206128a18339815191525460405163f77f3f1d60e01b81525f80516020612901833981519152916001600160a01b03169063f77f3f1d90611f3590899089908790600401612880565b6020604051808303815f875af1158015611f51573d5f803e3d5ffd5b505050506040513d601f19601f82011682018060405250810190611f759190612855565b9695505050505050565b5f808215611f925750600160f81b611f95565b505f5b5f805160206128a1833981519152546040516336024b2f60e21b81525f80516020612901833981519152916001600160a01b03169063d8092cbc90611f3590899089908790600401612880565b5f6104d6826fffffffffffffffffffffffffffffffff166006611e43565b5f8082156120135750600160f81b612016565b505f5b5f805160206128a1833981519152546040516385362ee760e01b81525f80516020612901833981519152916001600160a01b0316906385362ee790611f3590899089908790600401612880565b5f805f805160206129018339815191526001810154604051637702dcff60e01b81526004810188905260248101879052604481018690529192506001600160a01b031690637702dcff906064016020604051808303815f875af11580156120cc573d5f803e3d5ffd5b505050506040513d601f19601f820116820180604052508101906120f09190612855565b95945050505050565b6001600160a01b03821661212257604051633250574960e11b81525f60048201526024016105e9565b5f61212e83835f6113bd565b90506001600160a01b038116156109cb576040516339e3563760e11b81525f60048201526024016105e9565b6001600160e01b031981168114610d85575f80fd5b5f6020828403121561217f575f80fd5b81356113a98161215a565b5f81518084525f5b818110156121ae57602081850181015186830182015201612192565b505f602082860101526020601f19601f83011685010191505092915050565b602081525f6113a9602083018461218a565b5f602082840312156121ef575f80fd5b5035919050565b80356001600160a01b038116811461220c575f80fd5b919050565b5f8060408385031215612222575f80fd5b61222b836121f6565b946020939093013593505050565b634e487b7160e01b5f52604160045260245ffd5b5f82601f83011261225c575f80fd5b813567ffffffffffffffff8082111561227757612277612239565b604051601f8301601f19908116603f0116810190828211818310171561229f5761229f612239565b816040528381528660208588010111156122b7575f80fd5b836020870160208301375f602085830101528094505050505092915050565b5f805f80608085870312156122e9575f80fd5b8435935060208501359250604085013567ffffffffffffffff8082111561230e575f80fd5b61231a8883890161224d565b9350606087013591508082111561232f575f80fd5b5061233c8782880161224d565b91505092959194509250565b5f805f6060848603121561235a575f80fd5b612363846121f6565b9250612371602085016121f6565b9150604084013590509250925092565b602081525f82516080602084015261239c60a084018261218a565b9050602084015160408401526040840151151560608401526060840151151560808401528091505092915050565b608081525f6123dc608083018761218a565b60208301959095525091151560408301521515606090910152919050565b5f6020828403121561240a575f80fd5b6113a9826121f6565b5f8060408385031215612424575f80fd5b61242d836121f6565b915060208301358015158114612441575f80fd5b809150509250929050565b5f806040838503121561245d575f80fd5b82359150602083013567ffffffffffffffff81111561247a575f80fd5b6124868582860161224d565b9150509250929050565b5f805f80608085870312156124a3575f80fd5b6124ac856121f6565b93506124ba602086016121f6565b925060408501359150606085013567ffffffffffffffff8111156124dc575f80fd5b61233c8782880161224d565b5f80604083850312156124f9575f80fd5b612502836121f6565b9150612510602084016121f6565b90509250929050565b5f60208284031215612529575f80fd5b813567ffffffffffffffff81111561253f575f80fd5b611dc38482850161224d565b600181811c9082168061255f57607f821691505b60208210810361257d57634e487b7160e01b5f52602260045260245ffd5b50919050565b634e487b7160e01b5f52603260045260245ffd5b634e487b7160e01b5f52601160045260245ffd5b808201808211156104d6576104d6612597565b601f8211156109cb57805f5260205f20601f840160051c810160208510156125e35750805b601f840160051c820191505b8181101561180c575f81556001016125ef565b815167ffffffffffffffff81111561261c5761261c612239565b6126308161262a845461254b565b846125be565b602080601f831160018114612663575f841561264c5750858301515b5f19600386901b1c1916600185901b178555611a1f565b5f85815260208120601f198616915b8281101561269157888601518255948401946001909101908401612672565b50858210156126ae57878501515f19600388901b60f8161c191681555b5050505050600190811b01905550565b634e487b7160e01b5f52603160045260245ffd5b828152604060208201525f611dc3604083018461218a565b66697066733a2f2f60c81b81525f60075f84546127068161254b565b6001828116801561271e57600181146127395761276a565b60ff198416600789015260078315158402890101945061276a565b885f526020805f205f5b8581101561275e5781548b82018a0152908401908201612743565b50505060078389010194505b5092979650505050505050565b5f6001820161278857612788612597565b5060010190565b604081525f6127a1604083018561218a565b90508260208301529392505050565b6001600160a01b03858116825284166020820152604081018390526080606082018190525f90611f759083018461218a565b5f602082840312156127f2575f80fd5b81516113a98161215a565b6054811061281957634e487b7160e01b5f52602160045260245ffd5b9052565b8481526001600160a01b03841660208201526080604082018190525f906128469083018561218a565b90506120f060608301846127fd565b5f60208284031215612865575f80fd5b5051919050565b828152604081016113a960208301846127fd565b92835260208301919091526001600160f81b03191660408201526060019056fe9e7b61f58c47dc699ac88507c4f5bb9f121c03808c5676a8078fe583e46497012264f12941d84b8fb0039f7cd0c3a405b9d90f7a7e615d40e2e38de284d29e2de1c86a68ad3fc57177922d931c26195b73592ddb7774a04327aa5ada76f336cb9e7b61f58c47dc699ac88507c4f5bb9f121c03808c5676a8078fe583e4649700a26469706673582212203fb680299d54589148bbb2045b27eb86a21114e0f962c2974dd41a3e3a1a5dba64736f6c63430008180033",
  "linkReferences": {},
  "deployedLinkReferences": {}
}