{
  "_format": "hh-sol-artifact-1",
  "contractName": "ZepoMINTFHEAuctionSmartFinalizeFixed",
  "sourceName": "contracts/ZepoMINTFHEAuctionSmartFinalizeFixed.sol",
  "abi": [
    {
      "inputs": [],
      "stateMutability": "nonpayable",
      "type": "constructor"
    },
    {
      "inputs": [
        {
          "internalType": "address",
          "name": "sender",
          "type": "address"
        },
        {
          "internalType": "uint256",
          "name": "tokenId",
          "type": "uint256"
        },
        {
          "internalType": "address",
          "name": "owner",
          "type": "address"
        }
      ],
      "name": "ERC721IncorrectOwner",
      "type": "error"
    },
    {
      "inputs": [
        {
          "internalType": "address",
          "name": "operator",
          "type": "address"
        },
        {
          "internalType": "uint256",
          "name": "tokenId",
          "type": "uint256"
        }
      ],
      "name": "ERC721InsufficientApproval",
      "type": "error"
    },
    {
      "inputs": [
        {
          "internalType": "address",
          "name": "approver",
          "type": "address"
        }
      ],
      "name": "ERC721InvalidApprover",
      "type": "error"
    },
    {
      "inputs": [
        {
          "internalType": "address",
          "name": "operator",
          "type": "address"
        }
      ],
      "name": "ERC721InvalidOperator",
      "type": "error"
    },
    {
      "inputs": [
        {
          "internalType": "address",
          "name": "owner",
          "type": "address"
        }
      ],
      "name": "ERC721InvalidOwner",
      "type": "error"
    },
    {
      "inputs": [
        {
          "internalType": "address",
          "name": "receiver",
          "type": "address"
        }
      ],
      "name": "ERC721InvalidReceiver",
      "type": "error"
    },
    {
      "inputs": [
        {
          "internalType": "address",
          "name": "sender",
          "type": "address"
        }
      ],
      "name": "ERC721InvalidSender",
      "type": "error"
    },
    {
      "inputs": [
        {
          "internalType": "uint256",
          "name": "tokenId",
          "type": "uint256"
        }
      ],
      "name": "ERC721NonexistentToken",
      "type": "error"
    },
    {
      "inputs": [
        {
          "internalType": "address",
          "name": "owner",
          "type": "address"
        }
      ],
      "name": "OwnableInvalidOwner",
      "type": "error"
    },
    {
      "inputs": [
        {
          "internalType": "address",
          "name": "account",
          "type": "address"
        }
      ],
      "name": "OwnableUnauthorizedAccount",
      "type": "error"
    },
    {
      "anonymous": false,
      "inputs": [
        {
          "indexed": true,
          "internalType": "address",
          "name": "owner",
          "type": "address"
        },
        {
          "indexed": true,
          "internalType": "address",
          "name": "approved",
          "type": "address"
        },
        {
          "indexed": true,
          "internalType": "uint256",
          "name": "tokenId",
          "type": "uint256"
        }
      ],
      "name": "Approval",
      "type": "event"
    },
    {
      "anonymous": false,
      "inputs": [
        {
          "indexed": true,
          "internalType": "address",
          "name": "owner",
          "type": "address"
        },
        {
          "indexed": true,
          "internalType": "address",
          "name": "operator",
          "type": "address"
        },
        {
          "indexed": false,
          "internalType": "bool",
          "name": "approved",
          "type": "bool"
        }
      ],
      "name": "ApprovalForAll",
      "type": "event"
    },
    {
      "anonymous": false,
      "inputs": [
        {
          "indexed": false,
          "internalType": "uint256",
          "name": "endTime",
          "type": "uint256"
        },
        {
          "indexed": false,
          "internalType": "string",
          "name": "metadataCID",
          "type": "string"
        }
      ],
      "name": "AuctionCreated",
      "type": "event"
    },
    {
      "anonymous": false,
      "inputs": [
        {
          "indexed": false,
          "internalType": "eaddress",
          "name": "winner",
          "type": "bytes32"
        },
        {
          "indexed": false,
          "internalType": "euint128",
          "name": "encryptedPrice",
          "type": "bytes32"
        },
        {
          "indexed": false,
          "internalType": "uint256",
          "name": "winnerIndex",
          "type": "uint256"
        }
      ],
      "name": "AuctionFinalized",
      "type": "event"
    },
    {
      "anonymous": false,
      "inputs": [
        {
          "indexed": true,
          "internalType": "address",
          "name": "bidder",
          "type": "address"
        },
        {
          "indexed": false,
          "internalType": "uint256",
          "name": "bidIndex",
          "type": "uint256"
        }
      ],
      "name": "BidSubmitted",
      "type": "event"
    },
    {
      "anonymous": false,
      "inputs": [
        {
          "indexed": false,
          "internalType": "string",
          "name": "reason",
          "type": "string"
        }
      ],
      "name": "FHEOperationFailed",
      "type": "event"
    },
    {
      "anonymous": false,
      "inputs": [
        {
          "indexed": false,
          "internalType": "address",
          "name": "winner",
          "type": "address"
        },
        {
          "indexed": false,
          "internalType": "uint256",
          "name": "tokenId",
          "type": "uint256"
        }
      ],
      "name": "NFTMinted",
      "type": "event"
    },
    {
      "anonymous": false,
      "inputs": [
        {
          "indexed": true,
          "internalType": "address",
          "name": "previousOwner",
          "type": "address"
        },
        {
          "indexed": true,
          "internalType": "address",
          "name": "newOwner",
          "type": "address"
        }
      ],
      "name": "OwnershipTransferred",
      "type": "event"
    },
    {
      "anonymous": false,
      "inputs": [
        {
          "indexed": false,
          "internalType": "string",
          "name": "newPublicKeyURI",
          "type": "string"
        },
        {
          "indexed": false,
          "internalType": "uint256",
          "name": "timestamp",
          "type": "uint256"
        }
      ],
      "name": "PublicKeyUpdated",
      "type": "event"
    },
    {
      "anonymous": false,
      "inputs": [
        {
          "indexed": false,
          "internalType": "string",
          "name": "reason",
          "type": "string"
        },
        {
          "indexed": false,
          "internalType": "uint256",
          "name": "bidCount",
          "type": "uint256"
        }
      ],
      "name": "SmartFinalization",
      "type": "event"
    },
    {
      "anonymous": false,
      "inputs": [
        {
          "indexed": true,
          "internalType": "address",
          "name": "from",
          "type": "address"
        },
        {
          "indexed": true,
          "internalType": "address",
          "name": "to",
          "type": "address"
        },
        {
          "indexed": true,
          "internalType": "uint256",
          "name": "tokenId",
          "type": "uint256"
        }
      ],
      "name": "Transfer",
      "type": "event"
    },
    {
      "inputs": [
        {
          "internalType": "address",
          "name": "to",
          "type": "address"
        },
        {
          "internalType": "uint256",
          "name": "tokenId",
          "type": "uint256"
        }
      ],
      "name": "approve",
      "outputs": [],
      "stateMutability": "nonpayable",
      "type": "function"
    },
    {
      "inputs": [],
      "name": "auctionInitialized",
      "outputs": [
        {
          "internalType": "bool",
          "name": "",
          "type": "bool"
        }
      ],
      "stateMutability": "view",
      "type": "function"
    },
    {
      "inputs": [
        {
          "internalType": "address",
          "name": "owner",
          "type": "address"
        }
      ],
      "name": "balanceOf",
      "outputs": [
        {
          "internalType": "uint256",
          "name": "",
          "type": "uint256"
        }
      ],
      "stateMutability": "view",
      "type": "function"
    },
    {
      "inputs": [
        {
          "internalType": "uint256",
          "name": "",
          "type": "uint256"
        }
      ],
      "name": "bids",
      "outputs": [
        {
          "internalType": "euint128",
          "name": "encryptedAmount",
          "type": "bytes32"
        },
        {
          "internalType": "eaddress",
          "name": "bidder",
          "type": "bytes32"
        },
        {
          "internalType": "bool",
          "name": "revealed",
          "type": "bool"
        }
      ],
      "stateMutability": "view",
      "type": "function"
    },
    {
      "inputs": [
        {
          "internalType": "uint256",
          "name": "biddingDurationSeconds",
          "type": "uint256"
        },
        {
          "internalType": "string",
          "name": "metadataCID",
          "type": "string"
        }
      ],
      "name": "createAuction",
      "outputs": [],
      "stateMutability": "nonpayable",
      "type": "function"
    },
    {
      "inputs": [],
      "name": "currentAuction",
      "outputs": [
        {
          "internalType": "string",
          "name": "metadataCID",
          "type": "string"
        },
        {
          "internalType": "uint256",
          "name": "endTime",
          "type": "uint256"
        },
        {
          "internalType": "bool",
          "name": "finalized",
          "type": "bool"
        },
        {
          "internalType": "bool",
          "name": "initialized",
          "type": "bool"
        }
      ],
      "stateMutability": "view",
      "type": "function"
    },
    {
      "inputs": [
        {
          "internalType": "uint256",
          "name": "tokenId",
          "type": "uint256"
        }
      ],
      "name": "getApproved",
      "outputs": [
        {
          "internalType": "address",
          "name": "",
          "type": "address"
        }
      ],
      "stateMutability": "view",
      "type": "function"
    },
    {
      "inputs": [],
      "name": "getAuctionDetails",
      "outputs": [
        {
          "components": [
            {
              "internalType": "string",
              "name": "metadataCID",
              "type": "string"
            },
            {
              "internalType": "uint256",
              "name": "endTime",
              "type": "uint256"
            },
            {
              "internalType": "bool",
              "name": "finalized",
              "type": "bool"
            },
            {
              "internalType": "bool",
              "name": "initialized",
              "type": "bool"
            }
          ],
          "internalType": "struct ZepoMINTFHEAuctionSmartFinalizeFixed.Auction",
          "name": "",
          "type": "tuple"
        }
      ],
      "stateMutability": "view",
      "type": "function"
    },
    {
      "inputs": [
        {
          "internalType": "uint256",
          "name": "index",
          "type": "uint256"
        }
      ],
      "name": "getBid",
      "outputs": [
        {
          "components": [
            {
              "internalType": "euint128",
              "name": "encryptedAmount",
              "type": "bytes32"
            },
            {
              "internalType": "eaddress",
              "name": "bidder",
              "type": "bytes32"
            },
            {
              "internalType": "bool",
              "name": "revealed",
              "type": "bool"
            }
          ],
          "internalType": "struct ZepoMINTFHEAuctionSmartFinalizeFixed.Bid",
          "name": "",
          "type": "tuple"
        }
      ],
      "stateMutability": "view",
      "type": "function"
    },
    {
      "inputs": [],
      "name": "getBidCount",
      "outputs": [
        {
          "internalType": "uint256",
          "name": "",
          "type": "uint256"
        }
      ],
      "stateMutability": "view",
      "type": "function"
    },
    {
      "inputs": [],
      "name": "getPublicKeyURI",
      "outputs": [
        {
          "internalType": "string",
          "name": "",
          "type": "string"
        }
      ],
      "stateMutability": "view",
      "type": "function"
    },
    {
      "inputs": [],
      "name": "hasAuctionEnded",
      "outputs": [
        {
          "internalType": "bool",
          "name": "",
          "type": "bool"
        }
      ],
      "stateMutability": "view",
      "type": "function"
    },
    {
      "inputs": [
        {
          "internalType": "string",
          "name": "_publicKeyURI",
          "type": "string"
        }
      ],
      "name": "initialize",
      "outputs": [],
      "stateMutability": "nonpayable",
      "type": "function"
    },
    {
      "inputs": [
        {
          "internalType": "address",
          "name": "owner",
          "type": "address"
        },
        {
          "internalType": "address",
          "name": "operator",
          "type": "address"
        }
      ],
      "name": "isApprovedForAll",
      "outputs": [
        {
          "internalType": "bool",
          "name": "",
          "type": "bool"
        }
      ],
      "stateMutability": "view",
      "type": "function"
    },
    {
      "inputs": [
        {
          "internalType": "uint256",
          "name": "",
          "type": "uint256"
        }
      ],
      "name": "mintNFTToWinner",
      "outputs": [],
      "stateMutability": "nonpayable",
      "type": "function"
    },
    {
      "inputs": [],
      "name": "name",
      "outputs": [
        {
          "internalType": "string",
          "name": "",
          "type": "string"
        }
      ],
      "stateMutability": "view",
      "type": "function"
    },
    {
      "inputs": [],
      "name": "owner",
      "outputs": [
        {
          "internalType": "address",
          "name": "",
          "type": "address"
        }
      ],
      "stateMutability": "view",
      "type": "function"
    },
    {
      "inputs": [
        {
          "internalType": "uint256",
          "name": "tokenId",
          "type": "uint256"
        }
      ],
      "name": "ownerOf",
      "outputs": [
        {
          "internalType": "address",
          "name": "",
          "type": "address"
        }
      ],
      "stateMutability": "view",
      "type": "function"
    },
    {
      "inputs": [],
      "name": "protocolId",
      "outputs": [
        {
          "internalType": "uint256",
          "name": "",
          "type": "uint256"
        }
      ],
      "stateMutability": "pure",
      "type": "function"
    },
    {
      "inputs": [],
      "name": "publicKeyURI",
      "outputs": [
        {
          "internalType": "string",
          "name": "",
          "type": "string"
        }
      ],
      "stateMutability": "view",
      "type": "function"
    },
    {
      "inputs": [],
      "name": "renounceOwnership",
      "outputs": [],
      "stateMutability": "nonpayable",
      "type": "function"
    },
    {
      "inputs": [
        {
          "internalType": "address",
          "name": "from",
          "type": "address"
        },
        {
          "internalType": "address",
          "name": "to",
          "type": "address"
        },
        {
          "internalType": "uint256",
          "name": "tokenId",
          "type": "uint256"
        }
      ],
      "name": "safeTransferFrom",
      "outputs": [],
      "stateMutability": "nonpayable",
      "type": "function"
    },
    {
      "inputs": [
        {
          "internalType": "address",
          "name": "from",
          "type": "address"
        },
        {
          "internalType": "address",
          "name": "to",
          "type": "address"
        },
        {
          "internalType": "uint256",
          "name": "tokenId",
          "type": "uint256"
        },
        {
          "internalType": "bytes",
          "name": "data",
          "type": "bytes"
        }
      ],
      "name": "safeTransferFrom",
      "outputs": [],
      "stateMutability": "nonpayable",
      "type": "function"
    },
    {
      "inputs": [
        {
          "internalType": "address",
          "name": "operator",
          "type": "address"
        },
        {
          "internalType": "bool",
          "name": "approved",
          "type": "bool"
        }
      ],
      "name": "setApprovalForAll",
      "outputs": [],
      "stateMutability": "nonpayable",
      "type": "function"
    },
    {
      "inputs": [],
      "name": "smartFinalize",
      "outputs": [],
      "stateMutability": "nonpayable",
      "type": "function"
    },
    {
      "inputs": [
        {
          "internalType": "externalEuint128",
          "name": "encryptedAmount",
          "type": "bytes32"
        },
        {
          "internalType": "externalEaddress",
          "name": "bidder",
          "type": "bytes32"
        },
        {
          "internalType": "bytes",
          "name": "amountProof",
          "type": "bytes"
        },
        {
          "internalType": "bytes",
          "name": "bidderProof",
          "type": "bytes"
        }
      ],
      "name": "submitBid",
      "outputs": [],
      "stateMutability": "nonpayable",
      "type": "function"
    },
    {
      "inputs": [
        {
          "internalType": "bytes4",
          "name": "interfaceId",
          "type": "bytes4"
        }
      ],
      "name": "supportsInterface",
      "outputs": [
        {
          "internalType": "bool",
          "name": "",
          "type": "bool"
        }
      ],
      "stateMutability": "view",
      "type": "function"
    },
    {
      "inputs": [],
      "name": "symbol",
      "outputs": [
        {
          "internalType": "string",
          "name": "",
          "type": "string"
        }
      ],
      "stateMutability": "view",
      "type": "function"
    },
    {
      "inputs": [
        {
          "internalType": "uint256",
          "name": "tokenId",
          "type": "uint256"
        }
      ],
      "name": "tokenURI",
      "outputs": [
        {
          "internalType": "string",
          "name": "",
          "type": "string"
        }
      ],
      "stateMutability": "view",
      "type": "function"
    },
    {
      "inputs": [
        {
          "internalType": "address",
          "name": "from",
          "type": "address"
        },
        {
          "internalType": "address",
          "name": "to",
          "type": "address"
        },
        {
          "internalType": "uint256",
          "name": "tokenId",
          "type": "uint256"
        }
      ],
      "name": "transferFrom",
      "outputs": [],
      "stateMutability": "nonpayable",
      "type": "function"
    },
    {
      "inputs": [
        {
          "internalType": "address",
          "name": "newOwner",
          "type": "address"
        }
      ],
      "name": "transferOwnership",
      "outputs": [],
      "stateMutability": "nonpayable",
      "type": "function"
    },
    {
      "inputs": [],
      "name": "winnerEncrypted",
      "outputs": [
        {
          "internalType": "eaddress",
          "name": "",
          "type": "bytes32"
        }
      ],
      "stateMutability": "view",
      "type": "function"
    },
    {
      "inputs": [],
      "name": "winningBidEncrypted",
      "outputs": [
        {
          "internalType": "euint128",
          "name": "",
          "type": "bytes32"
        }
      ],
      "stateMutability": "view",
      "type": "function"
    },
    {
      "inputs": [],
      "name": "winningBidIndex",
      "outputs": [
        {
          "internalType": "uint256",
          "name": "",
          "type": "uint256"
        }
      ],
      "stateMutability": "view",
      "type": "function"
    }
  ],
  "bytecode": "0x600e805460ff1916905560a06040525f6080908152600f90620000239082620002de565b5034801562000030575f80fd5b50604080518082018252600c81526b16995c1bd35253950813919560a21b60208083019190915282518084019093526005835264169353919560da1b908301529033806200009757604051631e4fbdf760e01b81525f600482015260240160405180910390fd5b620000a281620001f1565b506001620000b18382620002de565b506002620000c08282620002de565b50506040805160808101825273687820221192c5b662b25367f70076a37bc79b6c80825273848b0066793bcc60346da1f49049357399b8d5956020830181905273b6e160b1ff80d67bfe90a85ee06ce0a2613607d1938301849052731364cbbf2cdf5032c47d8226a6f6fbd2afcdacac60609093018390527f9e7b61f58c47dc699ac88507c4f5bb9f121c03808c5676a8078fe583e464970080546001600160a01b031990811690931790557f9e7b61f58c47dc699ac88507c4f5bb9f121c03808c5676a8078fe583e46497018054831690911790557f9e7b61f58c47dc699ac88507c4f5bb9f121c03808c5676a8078fe583e4649702805482169093179092557f9e7b61f58c47dc699ac88507c4f5bb9f121c03808c5676a8078fe583e4649703805490921617905550620003aa565b5f80546001600160a01b038381166001600160a01b0319831681178455604051919092169283917f8be0079c531659141344cd1fd0a4f28419497f9722a3daafe3b4186f6b6457e09190a35050565b634e487b7160e01b5f52604160045260245ffd5b600181811c908216806200026957607f821691505b6020821081036200028857634e487b7160e01b5f52602260045260245ffd5b50919050565b601f821115620002d957805f5260205f20601f840160051c81016020851015620002b55750805b601f840160051c820191505b81811015620002d6575f8155600101620002c1565b50505b505050565b81516001600160401b03811115620002fa57620002fa62000240565b62000312816200030b845462000254565b846200028e565b602080601f83116001811462000348575f8415620003305750858301515b5f19600386901b1c1916600185901b178555620003a2565b5f85815260208120601f198616915b82811015620003785788860151825594840194600190910190840162000357565b50858210156200039657878501515f19600388901b60f8161c191681555b505060018460011b0185555b505050505050565b6126d080620003b85f395ff3fe608060405234801561000f575f80fd5b50600436106101fd575f3560e01c80638f1b8f3211610114578063cb3c24d3116100a9578063da1f12ab11610079578063da1f12ab14610441578063e985e9c514610449578063ef0ec4501461045c578063f2fde38b14610465578063f62d188814610478575f80fd5b8063cb3c24d314610415578063cead22621461041d578063d1b4c21814610426578063d1e74e9a1461042e575f80fd5b8063adaa1992116100e4578063adaa1992146103d3578063b88d4fde146103e6578063b9d0baf5146103f9578063c87b56dd14610402575f80fd5b80638f1b8f32146103a357806395d89b41146103b0578063a0484dda146103b8578063a22cb465146103c0575f80fd5b80633c889e6f1161019557806363415bc11161016557806363415bc11461035d5780636352211e1461036557806370a0823114610378578063715018a61461038b5780638da5cb5b14610393575f80fd5b80633c889e6f146102cb57806342842e0e146103025780634423c5f114610315578063496a698d14610345575f80fd5b806312c2f639116101d057806312c2f6391461027e57806323b872dd1461029157806328f6a48a146102a45780633a6dcea2146102b6575f80fd5b806301ffc9a71461020157806306fdde0314610229578063081812fc1461023e578063095ea7b314610269575b5f80fd5b61021461020f366004611f69565b61048b565b60405190151581526020015b60405180910390f35b6102316104dc565b6040516102209190611fc7565b61025161024c366004611fd9565b61056c565b6040516001600160a01b039091168152602001610220565b61027c61027736600461200b565b610593565b005b61027c61028c3660046120d0565b6105a2565b61027c61029f366004612142565b610782565b600a545b604051908152602001610220565b6102be61080b565b604051610220919061217b565b6102de6102d9366004611fd9565b6108f9565b60408051825181526020808401519082015291810151151590820152606001610220565b61027c610310366004612142565b6109b1565b610328610323366004611fd9565b6109d0565b604080519384526020840192909252151590820152606001610220565b61034d610a04565b60405161022094939291906121c4565b61027c610aad565b610251610373366004611fd9565b610d6f565b6102a86103863660046121f4565b610d79565b61027c610dbe565b5f546001600160a01b0316610251565b600e546102149060ff1681565b610231610dd1565b610214610de0565b61027c6103ce36600461220d565b610e00565b61027c6103e1366004612246565b610e0b565b61027c6103f436600461228a565b61101a565b6102a8600c5481565b610231610410366004611fd9565b611032565b6102316110f2565b6102a8600b5481565b610231611101565b61027c61043c366004611fd9565b61118d565b6127116102a8565b6102146104573660046122e2565b611251565b6102a8600d5481565b61027c6104733660046121f4565b61127e565b61027c610486366004612313565b6112b8565b5f6001600160e01b031982166380ac58cd60e01b14806104bb57506001600160e01b03198216635b5e139f60e01b145b806104d657506301ffc9a760e01b6001600160e01b03198316145b92915050565b6060600180546104eb90612345565b80601f016020809104026020016040519081016040528092919081815260200182805461051790612345565b80156105625780601f1061053957610100808354040283529160200191610562565b820191905f5260205f20905b81548152906001019060200180831161054557829003601f168201915b5050505050905090565b5f61057682611350565b505f828152600560205260409020546001600160a01b03166104d6565b61059e828233611388565b5050565b600954610100900460ff166105f25760405162461bcd60e51b815260206004820152601160248201527027379030b1ba34bb329030bab1ba34b7b760791b60448201526064015b60405180910390fd5b60095460ff16156106395760405162461bcd60e51b8152602060048201526011602482015270105d58dd1a5bdb88199a5b985b1a5e9959607a1b60448201526064016105e9565b600854421061067a5760405162461bcd60e51b815260206004820152600d60248201526c109a59191a5b99c8195b991959609a1b60448201526064016105e9565b5f6106858584611395565b90505f61069285846113a9565b600a80546040805160608101825286815260208082018681525f83850181815260018701885596905291517fc65a7bb8d6351c1cf70c95a316cc6a92839c986682d98bc35f958f4883f9d2a8600386029081019190915591517fc65a7bb8d6351c1cf70c95a316cc6a92839c986682d98bc35f958f4883f9d2a983015593517fc65a7bb8d6351c1cf70c95a316cc6a92839c986682d98bc35f958f4883f9d2aa909101805460ff1916911515919091179055518181529293509133917f0862512267aa2317caa9475b7e771425e6b897509aade0be0d8fc6f5ce5fdd18910160405180910390a250505050505050565b6001600160a01b0382166107ab57604051633250574960e11b81525f60048201526024016105e9565b5f6107b78383336113b6565b9050836001600160a01b0316816001600160a01b031614610805576040516364283d7b60e01b81526001600160a01b03808616600483015260248201849052821660448201526064016105e9565b50505050565b6040805160808101825260608082525f6020830181905292820183905281019190915260076040518060800160405290815f8201805461084a90612345565b80601f016020809104026020016040519081016040528092919081815260200182805461087690612345565b80156108c15780601f10610898576101008083540402835291602001916108c1565b820191905f5260205f20905b8154815290600101906020018083116108a457829003601f168201915b50505091835250506001820154602082015260029091015460ff80821615156040840152610100909104161515606090910152919050565b604080516060810182525f8082526020820181905291810191909152600a54821061095a5760405162461bcd60e51b8152602060048201526011602482015270092dcecc2d8d2c840c4d2c840d2dcc8caf607b1b60448201526064016105e9565b600a828154811061096d5761096d61237d565b5f9182526020918290206040805160608101825260039093029091018054835260018101549383019390935260029092015460ff1615159181019190915292915050565b6109cb83838360405180602001604052805f81525061101a565b505050565b600a81815481106109df575f80fd5b5f91825260209091206003909102018054600182015460029092015490925060ff1683565b600780548190610a1390612345565b80601f0160208091040260200160405190810160405280929190818152602001828054610a3f90612345565b8015610a8a5780601f10610a6157610100808354040283529160200191610a8a565b820191905f5260205f20905b815481529060010190602001808311610a6d57829003601f168201915b50505050600183015460029093015491929160ff80821692506101009091041684565b610ab56114a8565b600954610100900460ff16610b005760405162461bcd60e51b815260206004820152601160248201527027379030b1ba34bb329030bab1ba34b7b760791b60448201526064016105e9565b60095460ff1615610b475760405162461bcd60e51b8152602060048201526011602482015270105b1c9958591e48199a5b985b1a5e9959607a1b60448201526064016105e9565b600854421015610b8d5760405162461bcd60e51b8152602060048201526011602482015270105d58dd1a5bdb881b9bdd08195b991959607a1b60448201526064016105e9565b600a545f819003610c52576009805460ff191660011790556040517f2264f12941d84b8fb0039f7cd0c3a405b9d90f7a7e615d40e2e38de284d29e2d90610c03908390604080825260119082015270139bc8189a591cc81cdd589b5a5d1d1959607a1b6060820152602081019190915260800190565b60405180910390a1604080515f80825260208201819052918101919091527fe1c86a68ad3fc57177922d931c26195b73592ddb7774a04327aa5ada76f336cb906060015b60405180910390a150565b80600103610d6457600a5f81548110610c6d57610c6d61237d565b905f5260205f20906003020160010154600b81905550600a5f81548110610c9657610c9661237d565b5f9182526020822060039091020154600c55600d556009805460ff191660011790556040517f2264f12941d84b8fb0039f7cd0c3a405b9d90f7a7e615d40e2e38de284d29e2d90610d1690839060408082526011908201527029b4b733b632903134b2103bb4b73732b960791b6060820152602081019190915260800190565b60405180910390a1600b54600c54600d54604080519384526020840192909252908201527fe1c86a68ad3fc57177922d931c26195b73592ddb7774a04327aa5ada76f336cb90606001610c47565b610d6c6114d4565b50565b5f6104d682611350565b5f6001600160a01b038216610da3576040516322718ad960e21b81525f60048201526024016105e9565b506001600160a01b03165f9081526004602052604090205490565b610dc66114a8565b610dcf5f611703565b565b6060600280546104eb90612345565b6009545f90610100900460ff168015610dfb57506008544210155b905090565b61059e338383611752565b610e136114a8565b5f8211610e595760405162461bcd60e51b815260206004820152601460248201527304475726174696f6e206d757374206265203e20360641b60448201526064016105e9565b5f815111610ea15760405162461bcd60e51b815260206004820152601560248201527413595d1859185d184810d251081c995c5d5a5c9959605a1b60448201526064016105e9565b600954610100900460ff161580610eba575060095460ff165b610f065760405162461bcd60e51b815260206004820152601e60248201527f50726576696f75732061756374696f6e206e6f742066696e616c697a6564000060448201526064016105e9565b5f610f1183426123a5565b60408051608081018252848152602081018390525f9181019190915260016060820152909150600780610f4485826123fc565b506020820151600182015560408201516002909101805460609093015115156101000261ff00199215159290921661ffff19909316929092171790555b600a5415610fca57600a805480610f9a57610f9a6124b8565b5f8281526020812060035f19909301928302018181556001810191909155600201805460ff191690559055610f81565b5f600d55600e805460ff191660011790556040517f84dbbe572fcd8281f88fbf55359ad5039443609c2304288d3c8816dd3bb9fc219061100d90839085906124cc565b60405180910390a1505050565b611025848484610782565b61080533858585856117f0565b5f818152600360205260409020546060906001600160a01b031661108c5760405162461bcd60e51b81526020600482015260116024820152702737b732bc34b9ba32b73a103a37b5b2b760791b60448201526064016105e9565b600954610100900460ff1680156110b257505f60075f0180546110ae90612345565b9050115b156110df576040516110c9906007906020016124e4565b6040516020818303038152906040529050919050565b505060408051602081019091525f815290565b6060600f80546104eb90612345565b600f805461110e90612345565b80601f016020809104026020016040519081016040528092919081815260200182805461113a90612345565b80156111855780601f1061115c57610100808354040283529160200191611185565b820191905f5260205f20905b81548152906001019060200180831161116857829003601f168201915b505050505081565b60095460ff166111d75760405162461bcd60e51b8152602060048201526015602482015274105d58dd1a5bdb881b9bdd08199a5b985b1a5e9959605a1b60448201526064016105e9565b6111e3600b5433611918565b506111f0600c5433611918565b5060108054905f61120083612571565b91905055506112113360105461192a565b6010546040805133815260208101929092527f4cc0a9c4a99ddc700de1af2c9f916a7cbfdb71f14801ccff94061ad1ef8a8040910160405180910390a150565b6001600160a01b039182165f90815260066020908152604080832093909416825291909152205460ff1690565b6112866114a8565b6001600160a01b0381166112af57604051631e4fbdf760e01b81525f60048201526024016105e9565b610d6c81611703565b6112c06114a8565b600f80546112cd90612345565b1590506113125760405162461bcd60e51b8152602060048201526013602482015272105b1c9958591e481a5b9a5d1a585b1a5e9959606a1b60448201526064016105e9565b600f61131e82826123fc565b507fde6d55f540d15f192e6a2516799842e8cbf56cdad80f7276552b949bba4bf6fa8142604051610c47929190612589565b5f818152600360205260408120546001600160a01b0316806104d657604051637e27328960e01b8152600481018490526024016105e9565b6109cb8383836001611943565b5f6113a283836006611a47565b9392505050565b5f6113a283836007611a47565b5f828152600360205260408120546001600160a01b03908116908316156113e2576113e2818486611b54565b6001600160a01b0381161561141c576113fd5f855f80611943565b6001600160a01b0381165f90815260046020526040902080545f190190555b6001600160a01b0385161561144a576001600160a01b0385165f908152600460205260409020805460010190555b5f8481526003602052604080822080546001600160a01b0319166001600160a01b0389811691821790925591518793918516917fddf252ad1be2c89b69c2b068fc378daa952ba7f163c4a11628f55a4df523b3ef91a4949350505050565b5f546001600160a01b03163314610dcf5760405163118cdaa760e01b81523360048201526024016105e9565b5f5b600a548110156115415761150b600a82815481106114f6576114f661237d565b905f5260205f2090600302015f015430611918565b50611538600a82815481106115225761152261237d565b905f5260205f2090600302016001015430611918565b506001016114d6565b505f600a5f815481106115565761155661237d565b905f5260205f2090600302015f015490505f600a5f8154811061157b5761157b61237d565b905f5260205f2090600302016001015490505f600190505b600a54811015611631575f6115c9600a83815481106115b4576115b461237d565b905f5260205f2090600302015f015485611bb8565b90506115f781600a84815481106115e2576115e261237d565b905f5260205f2090600302015f015486611be6565b935061162681600a84815481106116105761161061237d565b905f5260205f2090600302016001015485611be6565b925050600101611593565b50600b819055600c8290555f600d556009805460ff19166001179055600a546040517f2264f12941d84b8fb0039f7cd0c3a405b9d90f7a7e615d40e2e38de284d29e2d916116b8916040808252601e908201527f4648452d62617365642077696e6e65722064657465726d696e6174696f6e00006060820152602081019190915260800190565b60405180910390a160408051828152602081018490525f8183015290517fe1c86a68ad3fc57177922d931c26195b73592ddb7774a04327aa5ada76f336cb9181900360600190a15050565b5f80546001600160a01b038381166001600160a01b0319831681178455604051919092169283917f8be0079c531659141344cd1fd0a4f28419497f9722a3daafe3b4186f6b6457e09190a35050565b6001600160a01b03821661178457604051630b61174360e31b81526001600160a01b03831660048201526024016105e9565b6001600160a01b038381165f81815260066020908152604080832094871680845294825291829020805460ff191686151590811790915591519182527f17307eab39ab6107e8899845ad3d59bd9653f200f220920489ca2b5937696c31910160405180910390a3505050565b6001600160a01b0383163b1561191157604051630a85bd0160e11b81526001600160a01b0384169063150b7a02906118329088908890879087906004016125aa565b6020604051808303815f875af192505050801561186c575060408051601f3d908101601f19168201909252611869918101906125dc565b60015b6118d3573d808015611899576040519150601f19603f3d011682016040523d82523d5f602084013e61189e565b606091505b5080515f036118cb57604051633250574960e11b81526001600160a01b03851660048201526024016105e9565b805160208201fd5b6001600160e01b03198116630a85bd0160e11b1461190f57604051633250574960e11b81526001600160a01b03851660048201526024016105e9565b505b5050505050565b5f6119238383611bfa565b5090919050565b61059e828260405180602001604052805f815250611c70565b808061195757506001600160a01b03821615155b15611a18575f61196684611350565b90506001600160a01b038316158015906119925750826001600160a01b0316816001600160a01b031614155b80156119a557506119a38184611251565b155b156119ce5760405163a9fbf51f60e01b81526001600160a01b03841660048201526024016105e9565b8115611a165783856001600160a01b0316826001600160a01b03167f8c5be1e5ebec7d5bd14f71427d1e84f3dd0314c0f7b2291e5b200ac8c7c3b92560405160405180910390a45b505b50505f90815260056020526040902080546001600160a01b0319166001600160a01b0392909216919091179055565b7f9e7b61f58c47dc699ac88507c4f5bb9f121c03808c5676a8078fe583e46497015460405163196d0b9b60e01b81525f915f8051602061267b833981519152916001600160a01b039091169063196d0b9b90611aad908890339089908990600401612617565b6020604051808303815f875af1158015611ac9573d5f803e3d5ffd5b505050506040513d601f19601f82011682018060405250810190611aed919061264f565b8154604051630f8e573b60e21b8152600481018390523360248201529193506001600160a01b031690633e395cec906044015f604051808303815f87803b158015611b36575f80fd5b505af1158015611b48573d5f803e3d5ffd5b50505050509392505050565b611b5f838383611c87565b6109cb576001600160a01b038316611b8d57604051637e27328960e01b8152600481018290526024016105e9565b60405163177e802f60e01b81526001600160a01b0383166004820152602481018290526044016105e9565b5f82611bca57611bc75f611ce8565b92505b81611bdb57611bd85f611ce8565b91505b6113a283835f611d06565b5f611bf2848484611dbb565b949350505050565b5f5f8051602061267b8339815191528054604051635ca4b5b160e11b8152600481018690526001600160a01b03858116602483015292935091169063b9496b62906044015f604051808303815f87803b158015611c55575f80fd5b505af1158015611c67573d5f803e3d5ffd5b50505050505050565b611c7a8383611e51565b6109cb335f8585856117f0565b5f6001600160a01b03831615801590611bf25750826001600160a01b0316846001600160a01b03161480611cc05750611cc08484611251565b80611bf25750505f908152600560205260409020546001600160a01b03908116911614919050565b5f6104d6826fffffffffffffffffffffffffffffffff166006611eb2565b5f808215611d195750600160f81b611d1c565b505f5b5f5f8051602061267b83398151915260018101546040516385362ee760e01b815260048101899052602481018890526001600160f81b0319851660448201529192506001600160a01b0316906385362ee7906064016020604051808303815f875af1158015611d8d573d5f803e3d5ffd5b505050506040513d601f19601f82011682018060405250810190611db1919061264f565b9695505050505050565b5f805f8051602061267b8339815191526001810154604051637702dcff60e01b81526004810188905260248101879052604481018690529192506001600160a01b031690637702dcff906064016020604051808303815f875af1158015611e24573d5f803e3d5ffd5b505050506040513d601f19601f82011682018060405250810190611e48919061264f565b95945050505050565b6001600160a01b038216611e7a57604051633250574960e11b81525f60048201526024016105e9565b5f611e8683835f6113b6565b90506001600160a01b038116156109cb576040516339e3563760e11b81525f60048201526024016105e9565b7f9e7b61f58c47dc699ac88507c4f5bb9f121c03808c5676a8078fe583e464970154604051639cd07acb60e01b81525f915f8051602061267b833981519152916001600160a01b0390911690639cd07acb90611f149087908790600401612666565b6020604051808303815f875af1158015611f30573d5f803e3d5ffd5b505050506040513d601f19601f82011682018060405250810190611bf2919061264f565b6001600160e01b031981168114610d6c575f80fd5b5f60208284031215611f79575f80fd5b81356113a281611f54565b5f81518084525f5b81811015611fa857602081850181015186830182015201611f8c565b505f602082860101526020601f19601f83011685010191505092915050565b602081525f6113a26020830184611f84565b5f60208284031215611fe9575f80fd5b5035919050565b80356001600160a01b0381168114612006575f80fd5b919050565b5f806040838503121561201c575f80fd5b61202583611ff0565b946020939093013593505050565b634e487b7160e01b5f52604160045260245ffd5b5f82601f830112612056575f80fd5b813567ffffffffffffffff8082111561207157612071612033565b604051601f8301601f19908116603f0116810190828211818310171561209957612099612033565b816040528381528660208588010111156120b1575f80fd5b836020870160208301375f602085830101528094505050505092915050565b5f805f80608085870312156120e3575f80fd5b8435935060208501359250604085013567ffffffffffffffff80821115612108575f80fd5b61211488838901612047565b93506060870135915080821115612129575f80fd5b5061213687828801612047565b91505092959194509250565b5f805f60608486031215612154575f80fd5b61215d84611ff0565b925061216b60208501611ff0565b9150604084013590509250925092565b602081525f82516080602084015261219660a0840182611f84565b9050602084015160408401526040840151151560608401526060840151151560808401528091505092915050565b608081525f6121d66080830187611f84565b60208301959095525091151560408301521515606090910152919050565b5f60208284031215612204575f80fd5b6113a282611ff0565b5f806040838503121561221e575f80fd5b61222783611ff0565b91506020830135801515811461223b575f80fd5b809150509250929050565b5f8060408385031215612257575f80fd5b82359150602083013567ffffffffffffffff811115612274575f80fd5b61228085828601612047565b9150509250929050565b5f805f806080858703121561229d575f80fd5b6122a685611ff0565b93506122b460208601611ff0565b925060408501359150606085013567ffffffffffffffff8111156122d6575f80fd5b61213687828801612047565b5f80604083850312156122f3575f80fd5b6122fc83611ff0565b915061230a60208401611ff0565b90509250929050565b5f60208284031215612323575f80fd5b813567ffffffffffffffff811115612339575f80fd5b611bf284828501612047565b600181811c9082168061235957607f821691505b60208210810361237757634e487b7160e01b5f52602260045260245ffd5b50919050565b634e487b7160e01b5f52603260045260245ffd5b634e487b7160e01b5f52601160045260245ffd5b808201808211156104d6576104d6612391565b601f8211156109cb57805f5260205f20601f840160051c810160208510156123dd5750805b601f840160051c820191505b81811015611911575f81556001016123e9565b815167ffffffffffffffff81111561241657612416612033565b61242a816124248454612345565b846123b8565b602080601f83116001811461245d575f84156124465750858301515b5f19600386901b1c1916600185901b17855561190f565b5f85815260208120601f198616915b8281101561248b5788860151825594840194600190910190840161246c565b50858210156124a857878501515f19600388901b60f8161c191681555b5050505050600190811b01905550565b634e487b7160e01b5f52603160045260245ffd5b828152604060208201525f611bf26040830184611f84565b66697066733a2f2f60c81b81525f60075f845461250081612345565b60018281168015612518576001811461253357612564565b60ff1984166007890152600783151584028901019450612564565b885f526020805f205f5b858110156125585781548b82018a015290840190820161253d565b50505060078389010194505b5092979650505050505050565b5f6001820161258257612582612391565b5060010190565b604081525f61259b6040830185611f84565b90508260208301529392505050565b6001600160a01b03858116825284166020820152604081018390526080606082018190525f90611db190830184611f84565b5f602082840312156125ec575f80fd5b81516113a281611f54565b6054811061261357634e487b7160e01b5f52602160045260245ffd5b9052565b8481526001600160a01b03841660208201526080604082018190525f9061264090830185611f84565b9050611e4860608301846125f7565b5f6020828403121561265f575f80fd5b5051919050565b828152604081016113a260208301846125f756fe9e7b61f58c47dc699ac88507c4f5bb9f121c03808c5676a8078fe583e4649700a2646970667358221220eaa1f8c09e40def114bb56091dda27543c8775f30e419af76c51b7c48eb8cd9164736f6c63430008180033",
  "linkReferences": {},
  "deployedLinkReferences": {}
}