{
  "_format": "hh-sol-artifact-1",
  "contractName": "ZepoMINTFHEAuctionComplete",
  "sourceName": "contracts/ZepoMINTFHEAuctionComplete.sol",
  "abi": [
    {
      "inputs": [],
      "stateMutability": "nonpayable",
      "type": "constructor"
    },
    {
      "inputs": [
        {
          "internalType": "address",
          "name": "sender",
          "type": "address"
        },
        {
          "internalType": "uint256",
          "name": "tokenId",
          "type": "uint256"
        },
        {
          "internalType": "address",
          "name": "owner",
          "type": "address"
        }
      ],
      "name": "ERC721IncorrectOwner",
      "type": "error"
    },
    {
      "inputs": [
        {
          "internalType": "address",
          "name": "operator",
          "type": "address"
        },
        {
          "internalType": "uint256",
          "name": "tokenId",
          "type": "uint256"
        }
      ],
      "name": "ERC721InsufficientApproval",
      "type": "error"
    },
    {
      "inputs": [
        {
          "internalType": "address",
          "name": "approver",
          "type": "address"
        }
      ],
      "name": "ERC721InvalidApprover",
      "type": "error"
    },
    {
      "inputs": [
        {
          "internalType": "address",
          "name": "operator",
          "type": "address"
        }
      ],
      "name": "ERC721InvalidOperator",
      "type": "error"
    },
    {
      "inputs": [
        {
          "internalType": "address",
          "name": "owner",
          "type": "address"
        }
      ],
      "name": "ERC721InvalidOwner",
      "type": "error"
    },
    {
      "inputs": [
        {
          "internalType": "address",
          "name": "receiver",
          "type": "address"
        }
      ],
      "name": "ERC721InvalidReceiver",
      "type": "error"
    },
    {
      "inputs": [
        {
          "internalType": "address",
          "name": "sender",
          "type": "address"
        }
      ],
      "name": "ERC721InvalidSender",
      "type": "error"
    },
    {
      "inputs": [
        {
          "internalType": "uint256",
          "name": "tokenId",
          "type": "uint256"
        }
      ],
      "name": "ERC721NonexistentToken",
      "type": "error"
    },
    {
      "inputs": [
        {
          "internalType": "address",
          "name": "owner",
          "type": "address"
        }
      ],
      "name": "OwnableInvalidOwner",
      "type": "error"
    },
    {
      "inputs": [
        {
          "internalType": "address",
          "name": "account",
          "type": "address"
        }
      ],
      "name": "OwnableUnauthorizedAccount",
      "type": "error"
    },
    {
      "anonymous": false,
      "inputs": [
        {
          "indexed": true,
          "internalType": "address",
          "name": "owner",
          "type": "address"
        },
        {
          "indexed": true,
          "internalType": "address",
          "name": "approved",
          "type": "address"
        },
        {
          "indexed": true,
          "internalType": "uint256",
          "name": "tokenId",
          "type": "uint256"
        }
      ],
      "name": "Approval",
      "type": "event"
    },
    {
      "anonymous": false,
      "inputs": [
        {
          "indexed": true,
          "internalType": "address",
          "name": "owner",
          "type": "address"
        },
        {
          "indexed": true,
          "internalType": "address",
          "name": "operator",
          "type": "address"
        },
        {
          "indexed": false,
          "internalType": "bool",
          "name": "approved",
          "type": "bool"
        }
      ],
      "name": "ApprovalForAll",
      "type": "event"
    },
    {
      "anonymous": false,
      "inputs": [
        {
          "indexed": false,
          "internalType": "uint256",
          "name": "endTime",
          "type": "uint256"
        },
        {
          "indexed": false,
          "internalType": "string",
          "name": "metadataCID",
          "type": "string"
        }
      ],
      "name": "AuctionCreated",
      "type": "event"
    },
    {
      "anonymous": false,
      "inputs": [
        {
          "indexed": false,
          "internalType": "eaddress",
          "name": "winner",
          "type": "bytes32"
        },
        {
          "indexed": false,
          "internalType": "euint128",
          "name": "encryptedPrice",
          "type": "bytes32"
        },
        {
          "indexed": false,
          "internalType": "uint256",
          "name": "winnerIndex",
          "type": "uint256"
        }
      ],
      "name": "AuctionFinalized",
      "type": "event"
    },
    {
      "anonymous": false,
      "inputs": [
        {
          "indexed": true,
          "internalType": "address",
          "name": "bidder",
          "type": "address"
        },
        {
          "indexed": false,
          "internalType": "uint256",
          "name": "bidIndex",
          "type": "uint256"
        }
      ],
      "name": "BidSubmitted",
      "type": "event"
    },
    {
      "anonymous": false,
      "inputs": [
        {
          "indexed": false,
          "internalType": "string",
          "name": "reason",
          "type": "string"
        }
      ],
      "name": "FHEOperationFailed",
      "type": "event"
    },
    {
      "anonymous": false,
      "inputs": [
        {
          "indexed": false,
          "internalType": "address",
          "name": "winner",
          "type": "address"
        },
        {
          "indexed": false,
          "internalType": "uint256",
          "name": "tokenId",
          "type": "uint256"
        }
      ],
      "name": "NFTMinted",
      "type": "event"
    },
    {
      "anonymous": false,
      "inputs": [
        {
          "indexed": true,
          "internalType": "address",
          "name": "previousOwner",
          "type": "address"
        },
        {
          "indexed": true,
          "internalType": "address",
          "name": "newOwner",
          "type": "address"
        }
      ],
      "name": "OwnershipTransferred",
      "type": "event"
    },
    {
      "anonymous": false,
      "inputs": [
        {
          "indexed": false,
          "internalType": "string",
          "name": "newPublicKeyURI",
          "type": "string"
        },
        {
          "indexed": false,
          "internalType": "uint256",
          "name": "timestamp",
          "type": "uint256"
        }
      ],
      "name": "PublicKeyUpdated",
      "type": "event"
    },
    {
      "anonymous": false,
      "inputs": [
        {
          "indexed": false,
          "internalType": "string",
          "name": "reason",
          "type": "string"
        },
        {
          "indexed": false,
          "internalType": "uint256",
          "name": "bidCount",
          "type": "uint256"
        }
      ],
      "name": "SmartFinalization",
      "type": "event"
    },
    {
      "anonymous": false,
      "inputs": [
        {
          "indexed": true,
          "internalType": "address",
          "name": "from",
          "type": "address"
        },
        {
          "indexed": true,
          "internalType": "address",
          "name": "to",
          "type": "address"
        },
        {
          "indexed": true,
          "internalType": "uint256",
          "name": "tokenId",
          "type": "uint256"
        }
      ],
      "name": "Transfer",
      "type": "event"
    },
    {
      "anonymous": false,
      "inputs": [
        {
          "indexed": false,
          "internalType": "address",
          "name": "winnerAddress",
          "type": "address"
        },
        {
          "indexed": false,
          "internalType": "uint256",
          "name": "winningBidIndex",
          "type": "uint256"
        }
      ],
      "name": "WinnerDeterminationCompleted",
      "type": "event"
    },
    {
      "anonymous": false,
      "inputs": [
        {
          "indexed": false,
          "internalType": "uint256",
          "name": "bidCount",
          "type": "uint256"
        }
      ],
      "name": "WinnerDeterminationStarted",
      "type": "event"
    },
    {
      "inputs": [
        {
          "internalType": "address",
          "name": "to",
          "type": "address"
        },
        {
          "internalType": "uint256",
          "name": "tokenId",
          "type": "uint256"
        }
      ],
      "name": "approve",
      "outputs": [],
      "stateMutability": "nonpayable",
      "type": "function"
    },
    {
      "inputs": [],
      "name": "auctionInitialized",
      "outputs": [
        {
          "internalType": "bool",
          "name": "",
          "type": "bool"
        }
      ],
      "stateMutability": "view",
      "type": "function"
    },
    {
      "inputs": [
        {
          "internalType": "address",
          "name": "owner",
          "type": "address"
        }
      ],
      "name": "balanceOf",
      "outputs": [
        {
          "internalType": "uint256",
          "name": "",
          "type": "uint256"
        }
      ],
      "stateMutability": "view",
      "type": "function"
    },
    {
      "inputs": [
        {
          "internalType": "uint256",
          "name": "",
          "type": "uint256"
        }
      ],
      "name": "bids",
      "outputs": [
        {
          "internalType": "euint128",
          "name": "encryptedAmount",
          "type": "bytes32"
        },
        {
          "internalType": "eaddress",
          "name": "bidder",
          "type": "bytes32"
        },
        {
          "internalType": "bool",
          "name": "revealed",
          "type": "bool"
        }
      ],
      "stateMutability": "view",
      "type": "function"
    },
    {
      "inputs": [
        {
          "internalType": "uint256",
          "name": "biddingDurationSeconds",
          "type": "uint256"
        },
        {
          "internalType": "string",
          "name": "metadataCID",
          "type": "string"
        }
      ],
      "name": "createAuction",
      "outputs": [],
      "stateMutability": "nonpayable",
      "type": "function"
    },
    {
      "inputs": [],
      "name": "currentAuction",
      "outputs": [
        {
          "internalType": "string",
          "name": "metadataCID",
          "type": "string"
        },
        {
          "internalType": "uint256",
          "name": "endTime",
          "type": "uint256"
        },
        {
          "internalType": "bool",
          "name": "finalized",
          "type": "bool"
        },
        {
          "internalType": "bool",
          "name": "initialized",
          "type": "bool"
        }
      ],
      "stateMutability": "view",
      "type": "function"
    },
    {
      "inputs": [
        {
          "internalType": "uint256",
          "name": "tokenId",
          "type": "uint256"
        }
      ],
      "name": "getApproved",
      "outputs": [
        {
          "internalType": "address",
          "name": "",
          "type": "address"
        }
      ],
      "stateMutability": "view",
      "type": "function"
    },
    {
      "inputs": [],
      "name": "getAuctionDetails",
      "outputs": [
        {
          "components": [
            {
              "internalType": "string",
              "name": "metadataCID",
              "type": "string"
            },
            {
              "internalType": "uint256",
              "name": "endTime",
              "type": "uint256"
            },
            {
              "internalType": "bool",
              "name": "finalized",
              "type": "bool"
            },
            {
              "internalType": "bool",
              "name": "initialized",
              "type": "bool"
            }
          ],
          "internalType": "struct ZepoMINTFHEAuctionComplete.Auction",
          "name": "",
          "type": "tuple"
        }
      ],
      "stateMutability": "view",
      "type": "function"
    },
    {
      "inputs": [
        {
          "internalType": "uint256",
          "name": "index",
          "type": "uint256"
        }
      ],
      "name": "getBid",
      "outputs": [
        {
          "components": [
            {
              "internalType": "euint128",
              "name": "encryptedAmount",
              "type": "bytes32"
            },
            {
              "internalType": "eaddress",
              "name": "bidder",
              "type": "bytes32"
            },
            {
              "internalType": "bool",
              "name": "revealed",
              "type": "bool"
            }
          ],
          "internalType": "struct ZepoMINTFHEAuctionComplete.Bid",
          "name": "",
          "type": "tuple"
        }
      ],
      "stateMutability": "view",
      "type": "function"
    },
    {
      "inputs": [],
      "name": "getBidCount",
      "outputs": [
        {
          "internalType": "uint256",
          "name": "",
          "type": "uint256"
        }
      ],
      "stateMutability": "view",
      "type": "function"
    },
    {
      "inputs": [],
      "name": "getPublicKeyURI",
      "outputs": [
        {
          "internalType": "string",
          "name": "",
          "type": "string"
        }
      ],
      "stateMutability": "view",
      "type": "function"
    },
    {
      "inputs": [],
      "name": "getWinnerDetails",
      "outputs": [
        {
          "internalType": "eaddress",
          "name": "winner",
          "type": "bytes32"
        },
        {
          "internalType": "euint128",
          "name": "winningBid",
          "type": "bytes32"
        },
        {
          "internalType": "uint256",
          "name": "index",
          "type": "uint256"
        }
      ],
      "stateMutability": "view",
      "type": "function"
    },
    {
      "inputs": [],
      "name": "hasAuctionEnded",
      "outputs": [
        {
          "internalType": "bool",
          "name": "",
          "type": "bool"
        }
      ],
      "stateMutability": "view",
      "type": "function"
    },
    {
      "inputs": [
        {
          "internalType": "string",
          "name": "_publicKeyURI",
          "type": "string"
        }
      ],
      "name": "initialize",
      "outputs": [],
      "stateMutability": "nonpayable",
      "type": "function"
    },
    {
      "inputs": [
        {
          "internalType": "address",
          "name": "owner",
          "type": "address"
        },
        {
          "internalType": "address",
          "name": "operator",
          "type": "address"
        }
      ],
      "name": "isApprovedForAll",
      "outputs": [
        {
          "internalType": "bool",
          "name": "",
          "type": "bool"
        }
      ],
      "stateMutability": "view",
      "type": "function"
    },
    {
      "inputs": [
        {
          "internalType": "uint256",
          "name": "",
          "type": "uint256"
        }
      ],
      "name": "mintNFTToWinner",
      "outputs": [],
      "stateMutability": "nonpayable",
      "type": "function"
    },
    {
      "inputs": [],
      "name": "name",
      "outputs": [
        {
          "internalType": "string",
          "name": "",
          "type": "string"
        }
      ],
      "stateMutability": "view",
      "type": "function"
    },
    {
      "inputs": [],
      "name": "owner",
      "outputs": [
        {
          "internalType": "address",
          "name": "",
          "type": "address"
        }
      ],
      "stateMutability": "view",
      "type": "function"
    },
    {
      "inputs": [
        {
          "internalType": "uint256",
          "name": "tokenId",
          "type": "uint256"
        }
      ],
      "name": "ownerOf",
      "outputs": [
        {
          "internalType": "address",
          "name": "",
          "type": "address"
        }
      ],
      "stateMutability": "view",
      "type": "function"
    },
    {
      "inputs": [],
      "name": "protocolId",
      "outputs": [
        {
          "internalType": "uint256",
          "name": "",
          "type": "uint256"
        }
      ],
      "stateMutability": "pure",
      "type": "function"
    },
    {
      "inputs": [],
      "name": "publicKeyURI",
      "outputs": [
        {
          "internalType": "string",
          "name": "",
          "type": "string"
        }
      ],
      "stateMutability": "view",
      "type": "function"
    },
    {
      "inputs": [],
      "name": "renounceOwnership",
      "outputs": [],
      "stateMutability": "nonpayable",
      "type": "function"
    },
    {
      "inputs": [
        {
          "internalType": "address",
          "name": "from",
          "type": "address"
        },
        {
          "internalType": "address",
          "name": "to",
          "type": "address"
        },
        {
          "internalType": "uint256",
          "name": "tokenId",
          "type": "uint256"
        }
      ],
      "name": "safeTransferFrom",
      "outputs": [],
      "stateMutability": "nonpayable",
      "type": "function"
    },
    {
      "inputs": [
        {
          "internalType": "address",
          "name": "from",
          "type": "address"
        },
        {
          "internalType": "address",
          "name": "to",
          "type": "address"
        },
        {
          "internalType": "uint256",
          "name": "tokenId",
          "type": "uint256"
        },
        {
          "internalType": "bytes",
          "name": "data",
          "type": "bytes"
        }
      ],
      "name": "safeTransferFrom",
      "outputs": [],
      "stateMutability": "nonpayable",
      "type": "function"
    },
    {
      "inputs": [
        {
          "internalType": "address",
          "name": "operator",
          "type": "address"
        },
        {
          "internalType": "bool",
          "name": "approved",
          "type": "bool"
        }
      ],
      "name": "setApprovalForAll",
      "outputs": [],
      "stateMutability": "nonpayable",
      "type": "function"
    },
    {
      "inputs": [],
      "name": "smartFinalize",
      "outputs": [],
      "stateMutability": "nonpayable",
      "type": "function"
    },
    {
      "inputs": [
        {
          "internalType": "externalEuint128",
          "name": "encryptedAmount",
          "type": "bytes32"
        },
        {
          "internalType": "externalEaddress",
          "name": "bidder",
          "type": "bytes32"
        },
        {
          "internalType": "bytes",
          "name": "amountProof",
          "type": "bytes"
        },
        {
          "internalType": "bytes",
          "name": "bidderProof",
          "type": "bytes"
        }
      ],
      "name": "submitBid",
      "outputs": [],
      "stateMutability": "nonpayable",
      "type": "function"
    },
    {
      "inputs": [
        {
          "internalType": "bytes4",
          "name": "interfaceId",
          "type": "bytes4"
        }
      ],
      "name": "supportsInterface",
      "outputs": [
        {
          "internalType": "bool",
          "name": "",
          "type": "bool"
        }
      ],
      "stateMutability": "view",
      "type": "function"
    },
    {
      "inputs": [],
      "name": "symbol",
      "outputs": [
        {
          "internalType": "string",
          "name": "",
          "type": "string"
        }
      ],
      "stateMutability": "view",
      "type": "function"
    },
    {
      "inputs": [
        {
          "internalType": "uint256",
          "name": "tokenId",
          "type": "uint256"
        }
      ],
      "name": "tokenURI",
      "outputs": [
        {
          "internalType": "string",
          "name": "",
          "type": "string"
        }
      ],
      "stateMutability": "view",
      "type": "function"
    },
    {
      "inputs": [
        {
          "internalType": "address",
          "name": "from",
          "type": "address"
        },
        {
          "internalType": "address",
          "name": "to",
          "type": "address"
        },
        {
          "internalType": "uint256",
          "name": "tokenId",
          "type": "uint256"
        }
      ],
      "name": "transferFrom",
      "outputs": [],
      "stateMutability": "nonpayable",
      "type": "function"
    },
    {
      "inputs": [
        {
          "internalType": "address",
          "name": "newOwner",
          "type": "address"
        }
      ],
      "name": "transferOwnership",
      "outputs": [],
      "stateMutability": "nonpayable",
      "type": "function"
    },
    {
      "inputs": [],
      "name": "winnerEncrypted",
      "outputs": [
        {
          "internalType": "eaddress",
          "name": "",
          "type": "bytes32"
        }
      ],
      "stateMutability": "view",
      "type": "function"
    },
    {
      "inputs": [],
      "name": "winningBidEncrypted",
      "outputs": [
        {
          "internalType": "euint128",
          "name": "",
          "type": "bytes32"
        }
      ],
      "stateMutability": "view",
      "type": "function"
    },
    {
      "inputs": [],
      "name": "winningBidIndex",
      "outputs": [
        {
          "internalType": "uint256",
          "name": "",
          "type": "uint256"
        }
      ],
      "stateMutability": "view",
      "type": "function"
    }
  ],
  "bytecode": "0x600e805460ff1916905560a06040525f6080908152600f90620000239082620002de565b5034801562000030575f80fd5b50604080518082018252600c81526b16995c1bd35253950813919560a21b60208083019190915282518084019093526005835264169353919560da1b908301529033806200009757604051631e4fbdf760e01b81525f600482015260240160405180910390fd5b620000a281620001f1565b506001620000b18382620002de565b506002620000c08282620002de565b50506040805160808101825273687820221192c5b662b25367f70076a37bc79b6c80825273848b0066793bcc60346da1f49049357399b8d5956020830181905273b6e160b1ff80d67bfe90a85ee06ce0a2613607d1938301849052731364cbbf2cdf5032c47d8226a6f6fbd2afcdacac60609093018390527f9e7b61f58c47dc699ac88507c4f5bb9f121c03808c5676a8078fe583e464970080546001600160a01b031990811690931790557f9e7b61f58c47dc699ac88507c4f5bb9f121c03808c5676a8078fe583e46497018054831690911790557f9e7b61f58c47dc699ac88507c4f5bb9f121c03808c5676a8078fe583e4649702805482169093179092557f9e7b61f58c47dc699ac88507c4f5bb9f121c03808c5676a8078fe583e4649703805490921617905550620003aa565b5f80546001600160a01b038381166001600160a01b0319831681178455604051919092169283917f8be0079c531659141344cd1fd0a4f28419497f9722a3daafe3b4186f6b6457e09190a35050565b634e487b7160e01b5f52604160045260245ffd5b600181811c908216806200026957607f821691505b6020821081036200028857634e487b7160e01b5f52602260045260245ffd5b50919050565b601f821115620002d957805f5260205f20601f840160051c81016020851015620002b55750805b601f840160051c820191505b81811015620002d6575f8155600101620002c1565b50505b505050565b81516001600160401b03811115620002fa57620002fa62000240565b62000312816200030b845462000254565b846200028e565b602080601f83116001811462000348575f8415620003305750858301515b5f19600386901b1c1916600185901b178555620003a2565b5f85815260208120601f198616915b82811015620003785788860151825594840194600190910190840162000357565b50858210156200039657878501515f19600388901b60f8161c191681555b505060018460011b0185555b505050505050565b6128a380620003b85f395ff3fe608060405234801561000f575f80fd5b5060043610610208575f3560e01c80638f1b8f321161011f578063cead2262116100a9578063e985e9c511610079578063e985e9c514610454578063ec39335f14610467578063ef0ec4501461048b578063f2fde38b14610494578063f62d1888146104a7575f80fd5b8063cead226214610428578063d1b4c21814610431578063d1e74e9a14610439578063da1f12ab1461044c575f80fd5b8063adaa1992116100ef578063adaa1992146103de578063b88d4fde146103f1578063b9d0baf514610404578063c87b56dd1461040d578063cb3c24d314610420575f80fd5b80638f1b8f32146103ae57806395d89b41146103bb578063a0484dda146103c3578063a22cb465146103cb575f80fd5b80633c889e6f116101a057806363415bc11161017057806363415bc1146103685780636352211e1461037057806370a0823114610383578063715018a6146103965780638da5cb5b1461039e575f80fd5b80633c889e6f146102d657806342842e0e1461030d5780634423c5f114610320578063496a698d14610350575f80fd5b806312c2f639116101db57806312c2f6391461028957806323b872dd1461029c57806328f6a48a146102af5780633a6dcea2146102c1575f80fd5b806301ffc9a71461020c57806306fdde0314610234578063081812fc14610249578063095ea7b314610274575b5f80fd5b61021f61021a36600461211c565b6104ba565b60405190151581526020015b60405180910390f35b61023c61050b565b60405161022b919061217a565b61025c61025736600461218c565b61059b565b6040516001600160a01b03909116815260200161022b565b6102876102823660046121be565b6105c2565b005b610287610297366004612283565b6105d1565b6102876102aa3660046122f5565b6107b1565b600a545b60405190815260200161022b565b6102c961083a565b60405161022b919061232e565b6102e96102e436600461218c565b610928565b6040805182518152602080840151908201529181015115159082015260600161022b565b61028761031b3660046122f5565b6109e0565b61033361032e36600461218c565b6109ff565b60408051938452602084019290925215159082015260600161022b565b610358610a33565b60405161022b9493929190612377565b610287610adc565b61025c61037e36600461218c565b610d83565b6102b36103913660046123a7565b610d8d565b610287610dd2565b5f546001600160a01b031661025c565b600e5461021f9060ff1681565b61023c610de5565b61021f610df4565b6102876103d93660046123c0565b610e14565b6102876103ec3660046123f9565b610e1f565b6102876103ff36600461243d565b61102e565b6102b3600c5481565b61023c61041b36600461218c565b611046565b61023c611106565b6102b3600b5481565b61023c611115565b61028761044736600461218c565b6111a1565b6127116102b3565b61021f610462366004612495565b61125f565b600b54600c54600d546040805193845260208401929092529082015260600161022b565b6102b3600d5481565b6102876104a23660046123a7565b61128c565b6102876104b53660046124c6565b6112c6565b5f6001600160e01b031982166380ac58cd60e01b14806104ea57506001600160e01b03198216635b5e139f60e01b145b8061050557506301ffc9a760e01b6001600160e01b03198316145b92915050565b60606001805461051a906124f8565b80601f0160208091040260200160405190810160405280929190818152602001828054610546906124f8565b80156105915780601f1061056857610100808354040283529160200191610591565b820191905f5260205f20905b81548152906001019060200180831161057457829003601f168201915b5050505050905090565b5f6105a58261135e565b505f828152600560205260409020546001600160a01b0316610505565b6105cd828233611396565b5050565b600954610100900460ff166106215760405162461bcd60e51b815260206004820152601160248201527027379030b1ba34bb329030bab1ba34b7b760791b60448201526064015b60405180910390fd5b60095460ff16156106685760405162461bcd60e51b8152602060048201526011602482015270105d58dd1a5bdb88199a5b985b1a5e9959607a1b6044820152606401610618565b60085442106106a95760405162461bcd60e51b815260206004820152600d60248201526c109a59191a5b99c8195b991959609a1b6044820152606401610618565b5f6106b485846113a3565b90505f6106c185846113b7565b600a80546040805160608101825286815260208082018681525f83850181815260018701885596905291517fc65a7bb8d6351c1cf70c95a316cc6a92839c986682d98bc35f958f4883f9d2a8600386029081019190915591517fc65a7bb8d6351c1cf70c95a316cc6a92839c986682d98bc35f958f4883f9d2a983015593517fc65a7bb8d6351c1cf70c95a316cc6a92839c986682d98bc35f958f4883f9d2aa909101805460ff1916911515919091179055518181529293509133917f0862512267aa2317caa9475b7e771425e6b897509aade0be0d8fc6f5ce5fdd18910160405180910390a250505050505050565b6001600160a01b0382166107da57604051633250574960e11b81525f6004820152602401610618565b5f6107e68383336113c4565b9050836001600160a01b0316816001600160a01b031614610834576040516364283d7b60e01b81526001600160a01b0380861660048301526024820184905282166044820152606401610618565b50505050565b6040805160808101825260608082525f6020830181905292820183905281019190915260076040518060800160405290815f82018054610879906124f8565b80601f01602080910402602001604051908101604052809291908181526020018280546108a5906124f8565b80156108f05780601f106108c7576101008083540402835291602001916108f0565b820191905f5260205f20905b8154815290600101906020018083116108d357829003601f168201915b50505091835250506001820154602082015260029091015460ff80821615156040840152610100909104161515606090910152919050565b604080516060810182525f8082526020820181905291810191909152600a5482106109895760405162461bcd60e51b8152602060048201526011602482015270092dcecc2d8d2c840c4d2c840d2dcc8caf607b1b6044820152606401610618565b600a828154811061099c5761099c612530565b5f9182526020918290206040805160608101825260039093029091018054835260018101549383019390935260029092015460ff1615159181019190915292915050565b6109fa83838360405180602001604052805f81525061102e565b505050565b600a8181548110610a0e575f80fd5b5f91825260209091206003909102018054600182015460029092015490925060ff1683565b600780548190610a42906124f8565b80601f0160208091040260200160405190810160405280929190818152602001828054610a6e906124f8565b8015610ab95780601f10610a9057610100808354040283529160200191610ab9565b820191905f5260205f20905b815481529060010190602001808311610a9c57829003601f168201915b50505050600183015460029093015491929160ff80821692506101009091041684565b610ae46114b6565b600954610100900460ff16610b2f5760405162461bcd60e51b815260206004820152601160248201527027379030b1ba34bb329030bab1ba34b7b760791b6044820152606401610618565b60095460ff1615610b765760405162461bcd60e51b8152602060048201526011602482015270105b1c9958591e48199a5b985b1a5e9959607a1b6044820152606401610618565b600854421015610bbc5760405162461bcd60e51b8152602060048201526011602482015270105d58dd1a5bdb881b9bdd08195b991959607a1b6044820152606401610618565b600a5460408051818152601d818301527f5374617274696e672066696e616c697a6174696f6e2070726f6365737300000060608201526020810183905290515f8051602061282e8339815191529181900360800190a1805f03610cc0576009805460ff191660011790556040515f8051602061282e83398151915290610c71908390604080825260119082015270139bc8189a591cc81cdd589b5a5d1d1959607a1b6060820152602081019190915260800190565b60405180910390a1604080515f80825260208201819052918101919091527fe1c86a68ad3fc57177922d931c26195b73592ddb7774a04327aa5ada76f336cb906060015b60405180910390a150565b80600103610d2457610cd06114e2565b60408051818152601b918101919091527f53696e676c65206269642077696e6e65722066696e616c697a656400000000006060820152602081018290525f8051602061282e83398151915290608001610cb5565b610d2c611631565b60408051818152601f818301527f4d756c7469706c6520626964732077696e6e65722064657465726d696e65640060608201526020810183905290515f8051602061282e8339815191529181900360800190a15b50565b5f6105058261135e565b5f6001600160a01b038216610db7576040516322718ad960e21b81525f6004820152602401610618565b506001600160a01b03165f9081526004602052604090205490565b610dda6114b6565b610de35f6116ce565b565b60606002805461051a906124f8565b6009545f90610100900460ff168015610e0f57506008544210155b905090565b6105cd33838361171d565b610e276114b6565b5f8211610e6d5760405162461bcd60e51b815260206004820152601460248201527304475726174696f6e206d757374206265203e20360641b6044820152606401610618565b5f815111610eb55760405162461bcd60e51b815260206004820152601560248201527413595d1859185d184810d251081c995c5d5a5c9959605a1b6044820152606401610618565b600954610100900460ff161580610ece575060095460ff165b610f1a5760405162461bcd60e51b815260206004820152601e60248201527f50726576696f75732061756374696f6e206e6f742066696e616c697a656400006044820152606401610618565b5f610f258342612558565b60408051608081018252848152602081018390525f9181019190915260016060820152909150600780610f5885826125af565b506020820151600182015560408201516002909101805460609093015115156101000261ff00199215159290921661ffff19909316929092171790555b600a5415610fde57600a805480610fae57610fae61266b565b5f8281526020812060035f19909301928302018181556001810191909155600201805460ff191690559055610f95565b5f600d55600e805460ff191660011790556040517f84dbbe572fcd8281f88fbf55359ad5039443609c2304288d3c8816dd3bb9fc2190611021908390859061267f565b60405180910390a1505050565b6110398484846107b1565b61083433858585856117bb565b5f818152600360205260409020546060906001600160a01b03166110a05760405162461bcd60e51b81526020600482015260116024820152702737b732bc34b9ba32b73a103a37b5b2b760791b6044820152606401610618565b600954610100900460ff1680156110c657505f60075f0180546110c2906124f8565b9050115b156110f3576040516110dd90600790602001612697565b6040516020818303038152906040529050919050565b505060408051602081019091525f815290565b6060600f805461051a906124f8565b600f8054611122906124f8565b80601f016020809104026020016040519081016040528092919081815260200182805461114e906124f8565b80156111995780601f1061117057610100808354040283529160200191611199565b820191905f5260205f20905b81548152906001019060200180831161117c57829003601f168201915b505050505081565b60095460ff166111eb5760405162461bcd60e51b8152602060048201526015602482015274105d58dd1a5bdb881b9bdd08199a5b985b1a5e9959605a1b6044820152606401610618565b6111f7600b54336118e3565b50611204600c54336118e3565b5060108054905f61121483612724565b9190505550611225336010546118f5565b6010546040805133815260208101929092527f4cc0a9c4a99ddc700de1af2c9f916a7cbfdb71f14801ccff94061ad1ef8a80409101610cb5565b6001600160a01b039182165f90815260066020908152604080832093909416825291909152205460ff1690565b6112946114b6565b6001600160a01b0381166112bd57604051631e4fbdf760e01b81525f6004820152602401610618565b610d80816116ce565b6112ce6114b6565b600f80546112db906124f8565b1590506113205760405162461bcd60e51b8152602060048201526013602482015272105b1c9958591e481a5b9a5d1a585b1a5e9959606a1b6044820152606401610618565b600f61132c82826125af565b507fde6d55f540d15f192e6a2516799842e8cbf56cdad80f7276552b949bba4bf6fa8142604051610cb592919061273c565b5f818152600360205260408120546001600160a01b03168061050557604051637e27328960e01b815260048101849052602401610618565b6109fa838383600161190e565b5f6113b083836006611a12565b9392505050565b5f6113b083836007611a12565b5f828152600360205260408120546001600160a01b03908116908316156113f0576113f0818486611b1f565b6001600160a01b0381161561142a5761140b5f855f8061190e565b6001600160a01b0381165f90815260046020526040902080545f190190555b6001600160a01b03851615611458576001600160a01b0385165f908152600460205260409020805460010190555b5f8481526003602052604080822080546001600160a01b0319166001600160a01b0389811691821790925591518793918516917fddf252ad1be2c89b69c2b068fc378daa952ba7f163c4a11628f55a4df523b3ef91a4949350505050565b5f546001600160a01b03163314610de35760405163118cdaa760e01b8152336004820152602401610618565b600a54600111156115295760405162461bcd60e51b81526020600482015260116024820152704e6f206269647320617661696c61626c6560781b6044820152606401610618565b611554600a5f8154811061153f5761153f612530565b905f5260205f2090600302015f0154306118e3565b50611581600a5f8154811061156b5761156b612530565b905f5260205f20906003020160010154306118e3565b50600a5f8154811061159557611595612530565b905f5260205f20906003020160010154600b81905550600a5f815481106115be576115be612530565b5f9182526020822060039091020154600c819055600d8290556009805460ff19166001179055600b546040517fe1c86a68ad3fc57177922d931c26195b73592ddb7774a04327aa5ada76f336cb9361162793919283526020830191909152604082015260600190565b60405180910390a1565b600a54600181116116935760405162461bcd60e51b815260206004820152602660248201527f4e656564206d6f7265207468616e20312062696420666f7220746869732066756044820152653731ba34b7b760d11b6064820152608401610618565b6040518181527f1e01108e45ade771a7322452d8eeada785443d31ab3612e976c08ed616d396949060200160405180910390a16105cd611b83565b5f80546001600160a01b038381166001600160a01b0319831681178455604051919092169283917f8be0079c531659141344cd1fd0a4f28419497f9722a3daafe3b4186f6b6457e09190a35050565b6001600160a01b03821661174f57604051630b61174360e31b81526001600160a01b0383166004820152602401610618565b6001600160a01b038381165f81815260066020908152604080832094871680845294825291829020805460ff191686151590811790915591519182527f17307eab39ab6107e8899845ad3d59bd9653f200f220920489ca2b5937696c31910160405180910390a3505050565b6001600160a01b0383163b156118dc57604051630a85bd0160e11b81526001600160a01b0384169063150b7a02906117fd90889088908790879060040161275d565b6020604051808303815f875af1925050508015611837575060408051601f3d908101601f191682019092526118349181019061278f565b60015b61189e573d808015611864576040519150601f19603f3d011682016040523d82523d5f602084013e611869565b606091505b5080515f0361189657604051633250574960e11b81526001600160a01b0385166004820152602401610618565b805160208201fd5b6001600160e01b03198116630a85bd0160e11b146118da57604051633250574960e11b81526001600160a01b0385166004820152602401610618565b505b5050505050565b5f6118ee8383611d70565b5090919050565b6105cd828260405180602001604052805f815250611de6565b808061192257506001600160a01b03821615155b156119e3575f6119318461135e565b90506001600160a01b0383161580159061195d5750826001600160a01b0316816001600160a01b031614155b8015611970575061196e818461125f565b155b156119995760405163a9fbf51f60e01b81526001600160a01b0384166004820152602401610618565b81156119e15783856001600160a01b0316826001600160a01b03167f8c5be1e5ebec7d5bd14f71427d1e84f3dd0314c0f7b2291e5b200ac8c7c3b92560405160405180910390a45b505b50505f90815260056020526040902080546001600160a01b0319166001600160a01b0392909216919091179055565b7f9e7b61f58c47dc699ac88507c4f5bb9f121c03808c5676a8078fe583e46497015460405163196d0b9b60e01b81525f915f8051602061284e833981519152916001600160a01b039091169063196d0b9b90611a789088903390899089906004016127ca565b6020604051808303815f875af1158015611a94573d5f803e3d5ffd5b505050506040513d601f19601f82011682018060405250810190611ab89190612802565b8154604051630f8e573b60e21b8152600481018390523360248201529193506001600160a01b031690633e395cec906044015f604051808303815f87803b158015611b01575f80fd5b505af1158015611b13573d5f803e3d5ffd5b50505050509392505050565b611b2a838383611dfd565b6109fa576001600160a01b038316611b5857604051637e27328960e01b815260048101829052602401610618565b60405163177e802f60e01b81526001600160a01b038316600482015260248101829052604401610618565b600a545f9060018111611be85760405162461bcd60e51b815260206004820152602760248201527f4e656564206d6f7265207468616e20312062696420666f7220464845206f7065604482015266726174696f6e7360c81b6064820152608401610618565b5f5b81811015611c2857611c08600a828154811061153f5761153f612530565b50611c1f600a828154811061156b5761156b612530565b50600101611bea565b505f600a5f81548110611c3d57611c3d612530565b905f5260205f2090600302015f015490505f600a5f81548110611c6257611c62612530565b5f91825260208220600160039092020181015492505b84811015611d14575f611cac600a8381548110611c9757611c97612530565b905f5260205f2090600302015f015486611e61565b9050611cda81600a8481548110611cc557611cc5612530565b905f5260205f2090600302015f015487611e8f565b9450611d0981600a8481548110611cf357611cf3612530565b905f5260205f2090600302016001015486611e8f565b935050600101611c78565b505f600d819055600b839055600c849055604080518481526020810186905280820192909252517fe1c86a68ad3fc57177922d931c26195b73592ddb7774a04327aa5ada76f336cb9181900360600190a1600194505050505090565b5f5f8051602061284e8339815191528054604051635ca4b5b160e11b8152600481018690526001600160a01b03858116602483015292935091169063b9496b62906044015f604051808303815f87803b158015611dcb575f80fd5b505af1158015611ddd573d5f803e3d5ffd5b50505050505050565b611df08383611e9b565b6109fa335f8585856117bb565b5f6001600160a01b03831615801590611e595750826001600160a01b0316846001600160a01b03161480611e365750611e36848461125f565b80611e5957505f828152600560205260409020546001600160a01b038481169116145b949350505050565b5f82611e7357611e705f611efc565b92505b81611e8457611e815f611efc565b91505b6113b083835f611f1a565b5f611e59848484611fcf565b6001600160a01b038216611ec457604051633250574960e11b81525f6004820152602401610618565b5f611ed083835f6113c4565b90506001600160a01b038116156109fa576040516339e3563760e11b81525f6004820152602401610618565b5f610505826fffffffffffffffffffffffffffffffff166006612065565b5f808215611f2d5750600160f81b611f30565b505f5b5f5f8051602061284e83398151915260018101546040516385362ee760e01b815260048101899052602481018890526001600160f81b0319851660448201529192506001600160a01b0316906385362ee7906064016020604051808303815f875af1158015611fa1573d5f803e3d5ffd5b505050506040513d601f19601f82011682018060405250810190611fc59190612802565b9695505050505050565b5f805f8051602061284e8339815191526001810154604051637702dcff60e01b81526004810188905260248101879052604481018690529192506001600160a01b031690637702dcff906064016020604051808303815f875af1158015612038573d5f803e3d5ffd5b505050506040513d601f19601f8201168201806040525081019061205c9190612802565b95945050505050565b7f9e7b61f58c47dc699ac88507c4f5bb9f121c03808c5676a8078fe583e464970154604051639cd07acb60e01b81525f915f8051602061284e833981519152916001600160a01b0390911690639cd07acb906120c79087908790600401612819565b6020604051808303815f875af11580156120e3573d5f803e3d5ffd5b505050506040513d601f19601f82011682018060405250810190611e599190612802565b6001600160e01b031981168114610d80575f80fd5b5f6020828403121561212c575f80fd5b81356113b081612107565b5f81518084525f5b8181101561215b5760208185018101518683018201520161213f565b505f602082860101526020601f19601f83011685010191505092915050565b602081525f6113b06020830184612137565b5f6020828403121561219c575f80fd5b5035919050565b80356001600160a01b03811681146121b9575f80fd5b919050565b5f80604083850312156121cf575f80fd5b6121d8836121a3565b946020939093013593505050565b634e487b7160e01b5f52604160045260245ffd5b5f82601f830112612209575f80fd5b813567ffffffffffffffff80821115612224576122246121e6565b604051601f8301601f19908116603f0116810190828211818310171561224c5761224c6121e6565b81604052838152866020858801011115612264575f80fd5b836020870160208301375f602085830101528094505050505092915050565b5f805f8060808587031215612296575f80fd5b8435935060208501359250604085013567ffffffffffffffff808211156122bb575f80fd5b6122c7888389016121fa565b935060608701359150808211156122dc575f80fd5b506122e9878288016121fa565b91505092959194509250565b5f805f60608486031215612307575f80fd5b612310846121a3565b925061231e602085016121a3565b9150604084013590509250925092565b602081525f82516080602084015261234960a0840182612137565b9050602084015160408401526040840151151560608401526060840151151560808401528091505092915050565b608081525f6123896080830187612137565b60208301959095525091151560408301521515606090910152919050565b5f602082840312156123b7575f80fd5b6113b0826121a3565b5f80604083850312156123d1575f80fd5b6123da836121a3565b9150602083013580151581146123ee575f80fd5b809150509250929050565b5f806040838503121561240a575f80fd5b82359150602083013567ffffffffffffffff811115612427575f80fd5b612433858286016121fa565b9150509250929050565b5f805f8060808587031215612450575f80fd5b612459856121a3565b9350612467602086016121a3565b925060408501359150606085013567ffffffffffffffff811115612489575f80fd5b6122e9878288016121fa565b5f80604083850312156124a6575f80fd5b6124af836121a3565b91506124bd602084016121a3565b90509250929050565b5f602082840312156124d6575f80fd5b813567ffffffffffffffff8111156124ec575f80fd5b611e59848285016121fa565b600181811c9082168061250c57607f821691505b60208210810361252a57634e487b7160e01b5f52602260045260245ffd5b50919050565b634e487b7160e01b5f52603260045260245ffd5b634e487b7160e01b5f52601160045260245ffd5b8082018082111561050557610505612544565b601f8211156109fa57805f5260205f20601f840160051c810160208510156125905750805b601f840160051c820191505b818110156118dc575f815560010161259c565b815167ffffffffffffffff8111156125c9576125c96121e6565b6125dd816125d784546124f8565b8461256b565b602080601f831160018114612610575f84156125f95750858301515b5f19600386901b1c1916600185901b1785556118da565b5f85815260208120601f198616915b8281101561263e5788860151825594840194600190910190840161261f565b508582101561265b57878501515f19600388901b60f8161c191681555b5050505050600190811b01905550565b634e487b7160e01b5f52603160045260245ffd5b828152604060208201525f611e596040830184612137565b66697066733a2f2f60c81b81525f60075f84546126b3816124f8565b600182811680156126cb57600181146126e657612717565b60ff1984166007890152600783151584028901019450612717565b885f526020805f205f5b8581101561270b5781548b82018a01529084019082016126f0565b50505060078389010194505b5092979650505050505050565b5f6001820161273557612735612544565b5060010190565b604081525f61274e6040830185612137565b90508260208301529392505050565b6001600160a01b03858116825284166020820152604081018390526080606082018190525f90611fc590830184612137565b5f6020828403121561279f575f80fd5b81516113b081612107565b605481106127c657634e487b7160e01b5f52602160045260245ffd5b9052565b8481526001600160a01b03841660208201526080604082018190525f906127f390830185612137565b905061205c60608301846127aa565b5f60208284031215612812575f80fd5b5051919050565b828152604081016113b060208301846127aa56fe2264f12941d84b8fb0039f7cd0c3a405b9d90f7a7e615d40e2e38de284d29e2d9e7b61f58c47dc699ac88507c4f5bb9f121c03808c5676a8078fe583e4649700a26469706673582212202d1680f9f98366e841599f47d64d220f2b170b0b864bdf5394bfad2fe6018b1264736f6c63430008180033",
  "linkReferences": {},
  "deployedLinkReferences": {}
}